{
  "_format": "hh-sol-artifact-1",
  "contractName": "CarbonCredit",
  "sourceName": "contracts/CarbonCredit.sol",
  "abi": [
    {
      "inputs": [
        {
          "internalType": "address",
          "name": "_verifierRegistry",
          "type": "address"
        }
      ],
      "stateMutability": "nonpayable",
      "type": "constructor"
    },
    {
      "anonymous": false,
      "inputs": [
        {
          "indexed": true,
          "internalType": "address",
          "name": "account",
          "type": "address"
        },
        {
          "indexed": true,
          "internalType": "address",
          "name": "operator",
          "type": "address"
        },
        {
          "indexed": false,
          "internalType": "bool",
          "name": "approved",
          "type": "bool"
        }
      ],
      "name": "ApprovalForAll",
      "type": "event"
    },
    {
      "anonymous": false,
      "inputs": [
        {
          "indexed": true,
          "internalType": "uint256",
          "name": "tokenId",
          "type": "uint256"
        },
        {
          "indexed": true,
          "internalType": "address",
          "name": "recipient",
          "type": "address"
        },
        {
          "indexed": false,
          "internalType": "uint256",
          "name": "amount",
          "type": "uint256"
        },
        {
          "indexed": false,
          "internalType": "address",
          "name": "verifier",
          "type": "address"
        }
      ],
      "name": "MintedWithAttestation",
      "type": "event"
    },
    {
      "anonymous": false,
      "inputs": [
        {
          "indexed": true,
          "internalType": "address",
          "name": "operator",
          "type": "address"
        },
        {
          "indexed": true,
          "internalType": "address",
          "name": "from",
          "type": "address"
        },
        {
          "indexed": true,
          "internalType": "address",
          "name": "to",
          "type": "address"
        },
        {
          "indexed": false,
          "internalType": "uint256[]",
          "name": "ids",
          "type": "uint256[]"
        },
        {
          "indexed": false,
          "internalType": "uint256[]",
          "name": "values",
          "type": "uint256[]"
        }
      ],
      "name": "TransferBatch",
      "type": "event"
    },
    {
      "anonymous": false,
      "inputs": [
        {
          "indexed": true,
          "internalType": "address",
          "name": "operator",
          "type": "address"
        },
        {
          "indexed": true,
          "internalType": "address",
          "name": "from",
          "type": "address"
        },
        {
          "indexed": true,
          "internalType": "address",
          "name": "to",
          "type": "address"
        },
        {
          "indexed": false,
          "internalType": "uint256",
          "name": "id",
          "type": "uint256"
        },
        {
          "indexed": false,
          "internalType": "uint256",
          "name": "value",
          "type": "uint256"
        }
      ],
      "name": "TransferSingle",
      "type": "event"
    },
    {
      "anonymous": false,
      "inputs": [
        {
          "indexed": false,
          "internalType": "string",
          "name": "value",
          "type": "string"
        },
        {
          "indexed": true,
          "internalType": "uint256",
          "name": "id",
          "type": "uint256"
        }
      ],
      "name": "URI",
      "type": "event"
    },
    {
      "inputs": [],
      "name": "ATTESTATION_TYPEHASH",
      "outputs": [
        {
          "internalType": "bytes32",
          "name": "",
          "type": "bytes32"
        }
      ],
      "stateMutability": "view",
      "type": "function"
    },
    {
      "inputs": [],
      "name": "DOMAIN_SEPARATOR",
      "outputs": [
        {
          "internalType": "bytes32",
          "name": "",
          "type": "bytes32"
        }
      ],
      "stateMutability": "view",
      "type": "function"
    },
    {
      "inputs": [
        {
          "internalType": "uint256",
          "name": "",
          "type": "uint256"
        }
      ],
      "name": "attestations",
      "outputs": [
        {
          "internalType": "string",
          "name": "gsProjectId",
          "type": "string"
        },
        {
          "internalType": "string",
          "name": "gsSerial",
          "type": "string"
        },
        {
          "internalType": "string",
          "name": "ipfsCid",
          "type": "string"
        },
        {
          "internalType": "uint256",
          "name": "amount",
          "type": "uint256"
        },
        {
          "internalType": "address",
          "name": "verifier",
          "type": "address"
        }
      ],
      "stateMutability": "view",
      "type": "function"
    },
    {
      "inputs": [
        {
          "internalType": "address",
          "name": "account",
          "type": "address"
        },
        {
          "internalType": "uint256",
          "name": "id",
          "type": "uint256"
        }
      ],
      "name": "balanceOf",
      "outputs": [
        {
          "internalType": "uint256",
          "name": "",
          "type": "uint256"
        }
      ],
      "stateMutability": "view",
      "type": "function"
    },
    {
      "inputs": [
        {
          "internalType": "address[]",
          "name": "accounts",
          "type": "address[]"
        },
        {
          "internalType": "uint256[]",
          "name": "ids",
          "type": "uint256[]"
        }
      ],
      "name": "balanceOfBatch",
      "outputs": [
        {
          "internalType": "uint256[]",
          "name": "",
          "type": "uint256[]"
        }
      ],
      "stateMutability": "view",
      "type": "function"
    },
    {
      "inputs": [
        {
          "internalType": "address",
          "name": "from",
          "type": "address"
        },
        {
          "internalType": "uint256",
          "name": "id",
          "type": "uint256"
        },
        {
          "internalType": "uint256",
          "name": "amount",
          "type": "uint256"
        }
      ],
      "name": "burn",
      "outputs": [],
      "stateMutability": "nonpayable",
      "type": "function"
    },
    {
      "inputs": [
        {
          "internalType": "uint256",
          "name": "id",
          "type": "uint256"
        }
      ],
      "name": "exists",
      "outputs": [
        {
          "internalType": "bool",
          "name": "",
          "type": "bool"
        }
      ],
      "stateMutability": "view",
      "type": "function"
    },
    {
      "inputs": [
        {
          "internalType": "address",
          "name": "account",
          "type": "address"
        },
        {
          "internalType": "address",
          "name": "operator",
          "type": "address"
        }
      ],
      "name": "isApprovedForAll",
      "outputs": [
        {
          "internalType": "bool",
          "name": "",
          "type": "bool"
        }
      ],
      "stateMutability": "view",
      "type": "function"
    },
    {
      "inputs": [
        {
          "internalType": "string",
          "name": "gsProjectId",
          "type": "string"
        },
        {
          "internalType": "string",
          "name": "gsSerial",
          "type": "string"
        },
        {
          "internalType": "string",
          "name": "ipfsCid",
          "type": "string"
        },
        {
          "internalType": "uint256",
          "name": "amount",
          "type": "uint256"
        },
        {
          "internalType": "address",
          "name": "recipient",
          "type": "address"
        },
        {
          "internalType": "bytes",
          "name": "signature",
          "type": "bytes"
        }
      ],
      "name": "mintWithAttestation",
      "outputs": [],
      "stateMutability": "nonpayable",
      "type": "function"
    },
    {
      "inputs": [],
      "name": "nextTokenId",
      "outputs": [
        {
          "internalType": "uint256",
          "name": "",
          "type": "uint256"
        }
      ],
      "stateMutability": "view",
      "type": "function"
    },
    {
      "inputs": [
        {
          "internalType": "address",
          "name": "",
          "type": "address"
        }
      ],
      "name": "nonces",
      "outputs": [
        {
          "internalType": "uint256",
          "name": "",
          "type": "uint256"
        }
      ],
      "stateMutability": "view",
      "type": "function"
    },
    {
      "inputs": [
        {
          "internalType": "address",
          "name": "from",
          "type": "address"
        },
        {
          "internalType": "address",
          "name": "to",
          "type": "address"
        },
        {
          "internalType": "uint256[]",
          "name": "ids",
          "type": "uint256[]"
        },
        {
          "internalType": "uint256[]",
          "name": "amounts",
          "type": "uint256[]"
        },
        {
          "internalType": "bytes",
          "name": "data",
          "type": "bytes"
        }
      ],
      "name": "safeBatchTransferFrom",
      "outputs": [],
      "stateMutability": "nonpayable",
      "type": "function"
    },
    {
      "inputs": [
        {
          "internalType": "address",
          "name": "from",
          "type": "address"
        },
        {
          "internalType": "address",
          "name": "to",
          "type": "address"
        },
        {
          "internalType": "uint256",
          "name": "id",
          "type": "uint256"
        },
        {
          "internalType": "uint256",
          "name": "amount",
          "type": "uint256"
        },
        {
          "internalType": "bytes",
          "name": "data",
          "type": "bytes"
        }
      ],
      "name": "safeTransferFrom",
      "outputs": [],
      "stateMutability": "nonpayable",
      "type": "function"
    },
    {
      "inputs": [
        {
          "internalType": "address",
          "name": "operator",
          "type": "address"
        },
        {
          "internalType": "bool",
          "name": "approved",
          "type": "bool"
        }
      ],
      "name": "setApprovalForAll",
      "outputs": [],
      "stateMutability": "nonpayable",
      "type": "function"
    },
    {
      "inputs": [
        {
          "internalType": "bytes4",
          "name": "interfaceId",
          "type": "bytes4"
        }
      ],
      "name": "supportsInterface",
      "outputs": [
        {
          "internalType": "bool",
          "name": "",
          "type": "bool"
        }
      ],
      "stateMutability": "view",
      "type": "function"
    },
    {
      "inputs": [
        {
          "internalType": "uint256",
          "name": "id",
          "type": "uint256"
        }
      ],
      "name": "totalSupply",
      "outputs": [
        {
          "internalType": "uint256",
          "name": "",
          "type": "uint256"
        }
      ],
      "stateMutability": "view",
      "type": "function"
    },
    {
      "inputs": [
        {
          "internalType": "uint256",
          "name": "id",
          "type": "uint256"
        }
      ],
      "name": "uri",
      "outputs": [
        {
          "internalType": "string",
          "name": "",
          "type": "string"
        }
      ],
      "stateMutability": "view",
      "type": "function"
    },
    {
      "inputs": [],
      "name": "verifierRegistry",
      "outputs": [
        {
          "internalType": "contract IVerifierRegistry",
          "name": "",
          "type": "address"
        }
      ],
      "stateMutability": "view",
      "type": "function"
    }
  ],
  "bytecode": "0x608034620001d7576001600160401b0390601f6200263938819003918201601f19168301929184841183851017620001c15780839260409586528339602092839181010312620001d757516001600160a01b0381169290839003620001d757805182810181811086821117620001c15782526000809152600254936001948581811c91168015620001b6575b85821014620001a257601f811162000173575b508160025560018060a01b03196004541617600455600c838351620000c381620001dc565b828152016b10d85c989bdb90dc99591a5d60a21b81522093838351620000e981620001dc565b82815201603160f81b8152208251938401947f8b73c3c69bb8fe3d512ecc4cf759cc79239f7b179b0ffacaa9a75d522b39400f86528385015260608401524660808401523060a084015260a0835260c0830194838610908611176200015f57508390525190206007556124409081620001f98239f35b634e487b7160e01b81526041600452602490fd5b6002835285601f868520920160051c8201915b828110620001965750506200009e565b84815501869062000186565b634e487b7160e01b83526022600452602483fd5b90607f16906200008b565b634e487b7160e01b600052604160045260246000fd5b600080fd5b604081019081106001600160401b03821117620001c15760405256fe6080604052600436101561001257600080fd5b60003560e01c8062fdd58e14611c1157806301daf26b14611b7257806301ffc9a714611b0457806307090c1f14611ac95780630e89341c14611a9d5780632eb2c2d6146116765780633644e515146116585780634e1273f4146114b65780634f558e791461148857806375794a3c1461146a5780637ecebe001461143057806386a23a6b14611407578063a22cb46514611323578063bd85b039146112f7578063e985e9c5146112a1578063f242432a14610f26578063f5298aca14610c9e5763f7b4480b146100e157600080fd5b34610c855760c0366003190112610c85576004356001600160401b038111610c8557610111903690600401611ed5565b906024356001600160401b038111610c8557610131903690600401611ed5565b9190926044356001600160401b038111610c8557610153903690600401611ed5565b936084356001600160a01b0381169003610c855760a4356001600160401b038111610c8557610186903690600401611ed5565b6084356001600160a01b031660009081526008602052604090208054959291906101af87611f87565b90556101bc368489611e3d565b60208151910120956101cf36868c611e3d565b602081519101206101e1368b89611e3d565b6020815191012090604051987f0c85b4ec5cf2f6006fac46b5ba274630b172be242e4fc0a4b8c8a0931fba639360208b015260408a01526060890152608088015260643560a088015260018060a01b036084351660c088015260e087015260e08652856101008101106001600160401b036101008801111761079257610100860160408190528651602088012060075461190160f01b6101208a0152610122890152610142880152604281526001600160401b036101808801908111911117610792576102cb6102d192876101806102d99901604052610120610100820151910120923691611e3d565b90612343565b949094612229565b600480546040516306620a4360e31b81526001600160a01b03878116938201939093529160209183916024918391165afa908115610c9257600091610c52575b5015610bf75761032a600654611f87565b92836006556040519661033c88611ca6565b600088526084356001600160a01b031615610ba85761035a856121f4565b966103666064356121f4565b9960005b89518110156103b157806103816103ac928e611fac565b5161038c828d611fac565b5160005260036020526103a560406000209182546120f2565b9055611f87565b61036a565b5089876000526000602052604060002060018060a01b036084351660005260205260406000206103e460643582546120f2565b90556040805189815260643560208201526084356001600160a01b03169160009133917fc3d58168c5ae7397731d063d5bbf3d657854427343f4c083240f7aacaa2d0f6291a46084353b610a2e575b5061043f368486611e3d565b8760005260096020526040600020908051916001600160401b03831161079257899261046b8254611c6c565b601f81116109da575b506020601f821160011461094a5791817f6bb7ff708619ba0610cba295a58592e0451dee2622938c8755667688daf3529b94926104db9460009161093f575b508160011b916000199060031b1c19161790555b604051918291602083526020830190611d88565b0390a2604051958660a08101106001600160401b0360a0890111176107925761051361051c936105289760a08a016040523691611e3d565b87523691611e3d565b60208501523691611e3d565b60408281019190915260643560608301526001600160a01b0384166080830152600083815260056020522081518051906001600160401b0382116107925781906105728454611c6c565b601f81116108ef575b50602090601f831160011461088357600092610878575b50508160011b916000199060031b1c19161781555b60208201518051906001600160401b0382116107925781906105cc6001850154611c6c565b601f8111610825575b50602090601f83116001146107b3576000926107a8575b50508160011b916000199060031b1c19161760018201555b60408201518051906001600160401b038211610792576106276002840154611c6c565b601f811161074b575b50602090601f83116001146106da576004939291600091836106cf575b50508160011b916000199060031b1c19161760028201555b60608301516003820155608090920151910180546001600160a01b0319166001600160a01b039283161790556040805160643581529382166020850152608435909116927f17518b438772c9ca9c95ad4be808a8b0416552f750ba6b578a2c62cd1ff5badf9190a3005b01519050878061064d565b90601f198316916002850160005260206000209260005b818110610733575091600193918560049796941061071a575b505050811b016002820155610665565b015160001960f88460031b161c1916905587808061070a565b929360206001819287860151815501950193016106f1565b600284016000526020600020601f840160051c81016020851061078b575b601f830160051c8201811061077f575050610630565b60008155600101610769565b5080610769565b634e487b7160e01b600052604160045260246000fd5b0151905086806105ec565b9250600184016000526020600020906000935b601f198416851061080a576001945083601f198116106107f1575b505050811b016001820155610604565b015160001960f88460031b161c191690558680806107e1565b818101518355602094850194600190930192909101906107c6565b909150600184016000526020600020601f840160051c810160208510610871575b90849392915b601f830160051c820181106108625750506105d5565b6000815585945060010161084c565b5080610846565b015190508680610592565b9250836000526020600020906000935b601f19841685106108d4576001945083601f198116106108bb575b505050811b0181556105a7565b015160001960f88460031b161c191690558680806108ae565b81810151835560209485019460019093019290910190610893565b909150836000526020600020601f840160051c810160208510610938575b90849392915b601f830160051c8201811061092957505061057b565b60008155859450600101610913565b508061090d565b90508301518f6104b3565b8260005260206000209060005b601f19841681106109bf5750826104db94926001927f6bb7ff708619ba0610cba295a58592e0451dee2622938c8755667688daf3529b9795601f198116106109a6575b5050811b0190556104c7565b85015160001960f88460031b161c191690558f8061099a565b8186015183558d965060019092019160209182019101610957565b9091809394506000526020600020601f830160051c810160208410610a27575b908c95949392915b601f830160051c82018110610a18575050610474565b600081558d9650600101610a02565b50806109fa565b60405160208180610a7063f23a6e6160e01b95868352336004840152600060248401528d6044840152606435606484015260a0608484015260a4830190611d88565b038160006084356001600160a01b03165af160009181610b77575b50610b4f5750506001610a9c612168565b6308c379a014610b18575b610ab2575b88610433565b60405162461bcd60e51b815260206004820152603460248201527f455243313135353a207472616e7366657220746f206e6f6e2d455243313135356044820152732932b1b2b4bb32b91034b6b83632b6b2b73a32b960611b6064820152608490fd5b0390fd5b610b20612186565b80610b2b5750610aa7565b60405162461bcd60e51b815260206004820152908190610b14906024830190611d88565b6001600160e01b03191614610aac5760405162461bcd60e51b815280610b146004820161211f565b610b9a91925060203d602011610ba1575b610b928183611cc1565b8101906120ff565b908b610a8b565b503d610b88565b60405162461bcd60e51b815260206004820152602160248201527f455243313135353a206d696e7420746f20746865207a65726f206164647265736044820152607360f81b6064820152608490fd5b60405162461bcd60e51b815260206004820152602d60248201527f6174746573746174696f6e206e6f74207369676e65642062792072656769737460448201526c32b932b2103b32b934b334b2b960991b6064820152608490fd5b90506020813d602011610c8a575b81610c6d60209383611cc1565b81010312610c8557518015158103610c855738610319565b600080fd5b3d9150610c60565b6040513d6000823e3d90fd5b34610c85576060366003190112610c8557610cb7611c40565b6024906044803591833591906001600160a01b03163381148015610f02575b15610ed0578015610e8157610cea836121f4565b90610cf4856121f4565b936000604051610d0381611ca6565b5260005b8351811015610db257610d1a8185611fac565b51610d258288611fac565b5190806000526003602081815260406000205492848410610d5e5790610d5995949392916000525203604060002055611f87565b610d07565b506084907f455243313135353a206275726e20616d6f756e74206578636565647320746f748a60288f6040519462461bcd60e51b8652600486015284015282015267616c537570706c7960c01b6064820152fd5b87838389888260005260209060008252604060002085600052825260406000205495838710610e32575050816000958487528683526040872086885283520360408620556040519283528201527fc3d58168c5ae7397731d063d5bbf3d657854427343f4c083240f7aacaa2d0f6260403392a4610e30604051611ca6565b005b60405162461bcd60e51b81526004810193909352828101527f455243313135353a206275726e20616d6f756e7420657863656564732062616c9082015263616e636560e01b6064820152608490fd5b60405162461bcd60e51b8152602060048201526023818701527f455243313135353a206275726e2066726f6d20746865207a65726f2061646472818401526265737360e81b6064820152608490fd5b60405162461bcd60e51b815260206004820152600c818701526b1b9bdd08185c1c1c9bdd995960a21b81840152606490fd5b5080600052600160205260406000203360005260205260ff60406000205416610cd6565b34610c855760a0366003190112610c8557610f3f611c40565b610f47611c56565b90608480356001600160401b038111610c8557610f68903690600401611e83565b6001600160a01b03919083831633148015611276575b610f8790611fd6565b82851615610f958115612039565b610fa06044356121f4565b610fab6064356121f4565b9185871615611236575b611176575b50506044356000526020946000865260406000208486166000528652604060002054610fea606435821015612093565b604435600052600087526040600020858716600052875260643590036040600020556044356000526000865260406000208482166000528652604060002061103560643582546120f2565b905560405160443581526064358782015284821690858716907fc3d58168c5ae7397731d063d5bbf3d657854427343f4c083240f7aacaa2d0f6260403392a4803b61107c57005b60a060006110c6958895604051978896879586938563f23a6e6160e01b9d8e87523360048801521660248601526044356044860152606435606486015284015260a4830190611d88565b0393165af160009181611157575b5061112d5750506001906110e6612168565b6308c379a0146110f8575b50610ab257005b611100612186565b908161110c57506110f1565b610b1460405192839262461bcd60e51b845260048401526024830190611d88565b6001600160e01b031916149050610e305760405162461bcd60e51b815280610b146004820161211f565b61116f919250843d8611610ba157610b928183611cc1565b90846110d4565b92959194909360005b8451811015611227576111928186611fac565b519061119e8188611fac565b518260005260036020526040600020548181106111d2576111cd93600052600360205203604060002055611f87565b61117f565b60405162461bcd60e51b815260206004820152602860248201527f455243313135353a206275726e20616d6f756e74206578636565647320746f74604482015267616c537570706c7960c01b60648201528b90fd5b50935093909491508580610fba565b959260009794919592975b86518110156112685780611258611263928b611fac565b5161038c828a611fac565b611241565b509295969194909396610fb5565b508284166000526001602052604060002033600052602052610f8760ff604060002054169050610f7e565b34610c85576040366003190112610c85576112ba611c40565b6112c2611c56565b9060018060a01b03809116600052600160205260406000209116600052602052602060ff604060002054166040519015158152f35b34610c85576020366003190112610c855760043560005260036020526020604060002054604051908152f35b34610c85576040366003190112610c855761133c611c40565b60243590811515809203610c85576001600160a01b0316903382146113b057336000526001602052604060002082600052602052604060002060ff1981541660ff83161790556040519081527f17307eab39ab6107e8899845ad3d59bd9653f200f220920489ca2b5937696c3160203392a3005b60405162461bcd60e51b815260206004820152602960248201527f455243313135353a2073657474696e6720617070726f76616c20737461747573604482015268103337b91039b2b63360b91b6064820152608490fd5b34610c85576000366003190112610c85576004546040516001600160a01b039091168152602090f35b34610c85576020366003190112610c85576001600160a01b03611451611c40565b1660005260086020526020604060002054604051908152f35b34610c85576000366003190112610c85576020600654604051908152f35b34610c85576020366003190112610c8557600435600052600360205260206040600020541515604051908152f35b34610c85576040366003190112610c85576004356001600160401b03808211610c855736602383011215610c85578160040135906114f382611dc8565b926115016040519485611cc1565b82845260209260248486019160051b83010191368311610c8557602401905b82821061163957505050602435908111610c8557611542903690600401611ddf565b82518151036115e25782519261155784611dc8565b936115656040519586611cc1565b808552611574601f1991611dc8565b01368486013760005b81518110156115c7576115c2906115b26001600160a01b0361159f8386611fac565b51166115ab8387611fac565b5190611f02565b6115bc8288611fac565b52611f87565b61157d565b5050506115de604051928284938452830190611ea1565b0390f35b60405162461bcd60e51b815260048101839052602960248201527f455243313135353a206163636f756e747320616e6420696473206c656e677468604482015268040dad2e6dac2e8c6d60bb1b6064820152608490fd5b81356001600160a01b0381168103610c85578152908401908401611520565b34610c85576000366003190112610c85576020600754604051908152f35b34610c855760031960a036820112610c8557611690611c40565b90611699611c56565b6001600160401b0390604435828111610c85576116ba903690600401611ddf565b91606435818111610c85576116d3903690600401611ddf565b926084918235908111610c85576116ee903690600401611e83565b6001600160a01b03929087841633148015611a72575b61170d90611fd6565b8251865103611a1e57838516156117248115612039565b848916156119e0575b61191d575b60005b83518110156117cc578061174c6117c79286611fac565b51611757828a611fac565b519080600052602090600082528c89604060002091166000528252828d6040600020549061178783831015612093565b83600052600085528b6040600020911660005284520360406000205560005260008152604060002090888a16600052526103a560406000209182546120f2565b611735565b509095949394604051604081526117e66040820185611ea1565b908082036020820152858816917f4a39dc06d4c0dbc64b70af90fd698a233a518aa5d07e595d983b8c0526c8f7fb878c16928061182433948c611ea1565b0390a4853b61182f57005b60405163bc197c8160e01b808252336004830152988516602482015260a0604482015296879586946118659060a4870190611ea1565b8386820301606487015261187891611ea1565b91848303019084015261188a91611d88565b03921691815a602094600091f1600091816118fd575b506118d557505060016118b1612168565b6308c379a0146118c2575b610ab257005b6118ca612186565b80610b2b57506118bc565b6001600160e01b03191614610e305760405162461bcd60e51b815280610b146004820161211f565b61191691925060203d8111610ba157610b928183611cc1565b90836118a0565b9591939094969260005b85518110156119d35761193a8187611fac565b51611945828b611fac565b5190806000526020600381526040600020549183831061197e57611979949392916003916000525203604060002055611f87565b611927565b60405162461bcd60e51b815260048101839052602860248201527f455243313135353a206275726e20616d6f756e74206578636565647320746f74604482015267616c537570706c7960c01b60648201528b90fd5b5092969490939195611732565b9794929693919060005b8851811015611a115780611a01611a0c928a611fac565b5161038c828c611fac565b6119ea565b509091939692949761172d565b5060405162461bcd60e51b815260206004820152602860248201527f455243313135353a2069647320616e6420616d6f756e7473206c656e677468206044820152670dad2e6dac2e8c6d60c31b6064820152fd5b50838816600052600160205260406000203360005260205261170d60ff604060002054169050611704565b34610c85576020366003190112610c855760043560005260096020526115de6104c76040600020611ce2565b34610c85576000366003190112610c855760206040517f0c85b4ec5cf2f6006fac46b5ba274630b172be242e4fc0a4b8c8a0931fba63938152f35b34610c85576020366003190112610c855760043563ffffffff60e01b8116809103610c8557602090636cdb3d1360e11b8114908115611b61575b8115611b50575b506040519015158152f35b6301ffc9a760e01b14905082611b45565b6303a24d0760e21b81149150611b3e565b34610c85576020366003190112610c85576004356000526005602052611be66040600020611b9f81611ce2565b90611bac60018201611ce2565b611c02611bbb60028401611ce2565b611bf4600385015494600460018060a01b03910154169360405197889760a0895260a0890190611d88565b908782036020890152611d88565b908582036040870152611d88565b91606084015260808301520390f35b34610c85576040366003190112610c85576020611c38611c2f611c40565b60243590611f02565b604051908152f35b600435906001600160a01b0382168203610c8557565b602435906001600160a01b0382168203610c8557565b90600182811c92168015611c9c575b6020831014611c8657565b634e487b7160e01b600052602260045260246000fd5b91607f1691611c7b565b602081019081106001600160401b0382111761079257604052565b90601f801991011681019081106001600160401b0382111761079257604052565b9060405191826000825492611cf684611c6c565b908184526001948581169081600014611d655750600114611d22575b5050611d2092500383611cc1565b565b9093915060005260209081600020936000915b818310611d4d575050611d2093508201013880611d12565b85548884018501529485019487945091830191611d35565b915050611d2094506020925060ff191682840152151560051b8201013880611d12565b919082519283825260005b848110611db4575050826000602080949584010152601f8019910116010190565b602081830181015184830182015201611d93565b6001600160401b0381116107925760051b60200190565b81601f82011215610c8557803591611df683611dc8565b92611e046040519485611cc1565b808452602092838086019260051b820101928311610c85578301905b828210611e2e575050505090565b81358152908301908301611e20565b9291926001600160401b0382116107925760405191611e66601f8201601f191660200184611cc1565b829481845281830111610c85578281602093846000960137010152565b9080601f83011215610c8557816020611e9e93359101611e3d565b90565b90815180825260208080930193019160005b828110611ec1575050505090565b835185529381019392810192600101611eb3565b9181601f84011215610c85578235916001600160401b038311610c855760208381860195010111610c8557565b6001600160a01b0316908115611f2f57600052600060205260406000209060005260205260406000205490565b60405162461bcd60e51b815260206004820152602a60248201527f455243313135353a2061646472657373207a65726f206973206e6f742061207660448201526930b634b21037bbb732b960b11b6064820152608490fd5b6000198114611f965760010190565b634e487b7160e01b600052601160045260246000fd5b8051821015611fc05760209160051b010190565b634e487b7160e01b600052603260045260246000fd5b15611fdd57565b60405162461bcd60e51b815260206004820152602e60248201527f455243313135353a2063616c6c6572206973206e6f7420746f6b656e206f776e60448201526d195c881bdc88185c1c1c9bdd995960921b6064820152608490fd5b1561204057565b60405162461bcd60e51b815260206004820152602560248201527f455243313135353a207472616e7366657220746f20746865207a65726f206164604482015264647265737360d81b6064820152608490fd5b1561209a57565b60405162461bcd60e51b815260206004820152602a60248201527f455243313135353a20696e73756666696369656e742062616c616e636520666f60448201526939103a3930b739b332b960b11b6064820152608490fd5b91908201809211611f9657565b90816020910312610c8557516001600160e01b031981168103610c855790565b60809060208152602860208201527f455243313135353a204552433131353552656365697665722072656a656374656040820152676420746f6b656e7360c01b60608201520190565b60009060033d1161217557565b905060046000803e60005160e01c90565b600060443d10611e9e57604051600319913d83016004833e81516001600160401b03918282113d6024840111176121e3578184019485519384116121eb573d850101602084870101116121e35750611e9e92910160200190611cc1565b949350505050565b50949350505050565b60405190604082018281106001600160401b038211176107925760405260018252602082016020368237825115611fc0575290565b600581101561232d578061223a5750565b600181036122875760405162461bcd60e51b815260206004820152601860248201527f45434453413a20696e76616c6964207369676e617475726500000000000000006044820152606490fd5b600281036122d45760405162461bcd60e51b815260206004820152601f60248201527f45434453413a20696e76616c6964207369676e6174757265206c656e677468006044820152606490fd5b6003146122dd57565b60405162461bcd60e51b815260206004820152602260248201527f45434453413a20696e76616c6964207369676e6174757265202773272076616c604482015261756560f01b6064820152608490fd5b634e487b7160e01b600052602160045260246000fd5b9060418151146000146123715761236d916020820151906060604084015193015160001a9061237b565b9091565b5050600090600290565b9291907f7fffffffffffffffffffffffffffffff5d576e7357a4501ddfe92f46681b20a083116123fe5791608094939160ff602094604051948552168484015260408301526060820152600093849182805260015afa156123f15781516001600160a01b038116156123eb579190565b50600190565b50604051903d90823e3d90fd5b5050505060009060039056fea26469706673582212206352a72fbe7c8083271d634fad776b9e67d5e893f37f959ebf09eb62f05a6d5764736f6c63430008120033",
  "linkReferences": {},
  "deployedLinkReferences": {}
}