{
  "_format": "hh-sol-artifact-1",
  "contractName": "DocumentRegistry",
  "sourceName": "contracts/DocumentRegistry.sol",
  "abi": [
    {
      "inputs": [
        {
          "internalType": "address",
          "name": "_verifierRegistry",
          "type": "address"
        }
      ],
      "stateMutability": "nonpayable",
      "type": "constructor"
    },
    {
      "inputs": [],
      "name": "DocumentAlreadyAttested",
      "type": "error"
    },
    {
      "inputs": [],
      "name": "DocumentNotFound",
      "type": "error"
    },
    {
      "inputs": [],
      "name": "EmptyCID",
      "type": "error"
    },
    {
      "inputs": [],
      "name": "EmptyProjectName",
      "type": "error"
    },
    {
      "inputs": [],
      "name": "NotVerifier",
      "type": "error"
    },
    {
      "anonymous": false,
      "inputs": [
        {
          "indexed": true,
          "internalType": "uint256",
          "name": "documentId",
          "type": "uint256"
        },
        {
          "indexed": true,
          "internalType": "address",
          "name": "verifier",
          "type": "address"
        },
        {
          "indexed": false,
          "internalType": "uint256",
          "name": "attestedAt",
          "type": "uint256"
        }
      ],
      "name": "DocumentAttested",
      "type": "event"
    },
    {
      "anonymous": false,
      "inputs": [
        {
          "indexed": true,
          "internalType": "uint256",
          "name": "documentId",
          "type": "uint256"
        },
        {
          "indexed": true,
          "internalType": "address",
          "name": "uploader",
          "type": "address"
        },
        {
          "indexed": false,
          "internalType": "string",
          "name": "cid",
          "type": "string"
        },
        {
          "indexed": false,
          "internalType": "string",
          "name": "projectName",
          "type": "string"
        }
      ],
      "name": "DocumentRegistered",
      "type": "event"
    },
    {
      "inputs": [
        {
          "internalType": "uint256",
          "name": "documentId",
          "type": "uint256"
        }
      ],
      "name": "attestDocument",
      "outputs": [],
      "stateMutability": "nonpayable",
      "type": "function"
    },
    {
      "inputs": [
        {
          "internalType": "uint256",
          "name": "",
          "type": "uint256"
        }
      ],
      "name": "documents",
      "outputs": [
        {
          "internalType": "string",
          "name": "cid",
          "type": "string"
        },
        {
          "internalType": "address",
          "name": "uploader",
          "type": "address"
        },
        {
          "internalType": "string",
          "name": "projectName",
          "type": "string"
        },
        {
          "internalType": "string",
          "name": "projectType",
          "type": "string"
        },
        {
          "internalType": "string",
          "name": "description",
          "type": "string"
        },
        {
          "internalType": "string",
          "name": "location",
          "type": "string"
        },
        {
          "internalType": "uint256",
          "name": "estimatedCredits",
          "type": "uint256"
        },
        {
          "internalType": "uint256",
          "name": "timestamp",
          "type": "uint256"
        },
        {
          "internalType": "bool",
          "name": "isAttested",
          "type": "bool"
        },
        {
          "internalType": "address",
          "name": "verifier",
          "type": "address"
        },
        {
          "internalType": "uint256",
          "name": "attestedAt",
          "type": "uint256"
        }
      ],
      "stateMutability": "view",
      "type": "function"
    },
    {
      "inputs": [],
      "name": "getAllDocuments",
      "outputs": [
        {
          "components": [
            {
              "internalType": "string",
              "name": "cid",
              "type": "string"
            },
            {
              "internalType": "address",
              "name": "uploader",
              "type": "address"
            },
            {
              "internalType": "string",
              "name": "projectName",
              "type": "string"
            },
            {
              "internalType": "string",
              "name": "projectType",
              "type": "string"
            },
            {
              "internalType": "string",
              "name": "description",
              "type": "string"
            },
            {
              "internalType": "string",
              "name": "location",
              "type": "string"
            },
            {
              "internalType": "uint256",
              "name": "estimatedCredits",
              "type": "uint256"
            },
            {
              "internalType": "uint256",
              "name": "timestamp",
              "type": "uint256"
            },
            {
              "internalType": "bool",
              "name": "isAttested",
              "type": "bool"
            },
            {
              "internalType": "address",
              "name": "verifier",
              "type": "address"
            },
            {
              "internalType": "uint256",
              "name": "attestedAt",
              "type": "uint256"
            }
          ],
          "internalType": "struct DocumentRegistry.Document[]",
          "name": "allDocs",
          "type": "tuple[]"
        }
      ],
      "stateMutability": "view",
      "type": "function"
    },
    {
      "inputs": [
        {
          "internalType": "uint256",
          "name": "documentId",
          "type": "uint256"
        }
      ],
      "name": "getDocument",
      "outputs": [
        {
          "components": [
            {
              "internalType": "string",
              "name": "cid",
              "type": "string"
            },
            {
              "internalType": "address",
              "name": "uploader",
              "type": "address"
            },
            {
              "internalType": "string",
              "name": "projectName",
              "type": "string"
            },
            {
              "internalType": "string",
              "name": "projectType",
              "type": "string"
            },
            {
              "internalType": "string",
              "name": "description",
              "type": "string"
            },
            {
              "internalType": "string",
              "name": "location",
              "type": "string"
            },
            {
              "internalType": "uint256",
              "name": "estimatedCredits",
              "type": "uint256"
            },
            {
              "internalType": "uint256",
              "name": "timestamp",
              "type": "uint256"
            },
            {
              "internalType": "bool",
              "name": "isAttested",
              "type": "bool"
            },
            {
              "internalType": "address",
              "name": "verifier",
              "type": "address"
            },
            {
              "internalType": "uint256",
              "name": "attestedAt",
              "type": "uint256"
            }
          ],
          "internalType": "struct DocumentRegistry.Document",
          "name": "doc",
          "type": "tuple"
        }
      ],
      "stateMutability": "view",
      "type": "function"
    },
    {
      "inputs": [
        {
          "internalType": "bool",
          "name": "attested",
          "type": "bool"
        }
      ],
      "name": "getDocumentsByStatus",
      "outputs": [
        {
          "components": [
            {
              "internalType": "string",
              "name": "cid",
              "type": "string"
            },
            {
              "internalType": "address",
              "name": "uploader",
              "type": "address"
            },
            {
              "internalType": "string",
              "name": "projectName",
              "type": "string"
            },
            {
              "internalType": "string",
              "name": "projectType",
              "type": "string"
            },
            {
              "internalType": "string",
              "name": "description",
              "type": "string"
            },
            {
              "internalType": "string",
              "name": "location",
              "type": "string"
            },
            {
              "internalType": "uint256",
              "name": "estimatedCredits",
              "type": "uint256"
            },
            {
              "internalType": "uint256",
              "name": "timestamp",
              "type": "uint256"
            },
            {
              "internalType": "bool",
              "name": "isAttested",
              "type": "bool"
            },
            {
              "internalType": "address",
              "name": "verifier",
              "type": "address"
            },
            {
              "internalType": "uint256",
              "name": "attestedAt",
              "type": "uint256"
            }
          ],
          "internalType": "struct DocumentRegistry.Document[]",
          "name": "filteredDocs",
          "type": "tuple[]"
        }
      ],
      "stateMutability": "view",
      "type": "function"
    },
    {
      "inputs": [],
      "name": "getTotalDocuments",
      "outputs": [
        {
          "internalType": "uint256",
          "name": "count",
          "type": "uint256"
        }
      ],
      "stateMutability": "view",
      "type": "function"
    },
    {
      "inputs": [
        {
          "internalType": "address",
          "name": "user",
          "type": "address"
        }
      ],
      "name": "getUserDocuments",
      "outputs": [
        {
          "internalType": "uint256[]",
          "name": "userDocs",
          "type": "uint256[]"
        }
      ],
      "stateMutability": "view",
      "type": "function"
    },
    {
      "inputs": [
        {
          "internalType": "address",
          "name": "user",
          "type": "address"
        }
      ],
      "name": "getUserDocumentsWithDetails",
      "outputs": [
        {
          "components": [
            {
              "internalType": "string",
              "name": "cid",
              "type": "string"
            },
            {
              "internalType": "address",
              "name": "uploader",
              "type": "address"
            },
            {
              "internalType": "string",
              "name": "projectName",
              "type": "string"
            },
            {
              "internalType": "string",
              "name": "projectType",
              "type": "string"
            },
            {
              "internalType": "string",
              "name": "description",
              "type": "string"
            },
            {
              "internalType": "string",
              "name": "location",
              "type": "string"
            },
            {
              "internalType": "uint256",
              "name": "estimatedCredits",
              "type": "uint256"
            },
            {
              "internalType": "uint256",
              "name": "timestamp",
              "type": "uint256"
            },
            {
              "internalType": "bool",
              "name": "isAttested",
              "type": "bool"
            },
            {
              "internalType": "address",
              "name": "verifier",
              "type": "address"
            },
            {
              "internalType": "uint256",
              "name": "attestedAt",
              "type": "uint256"
            }
          ],
          "internalType": "struct DocumentRegistry.Document[]",
          "name": "userDocs",
          "type": "tuple[]"
        }
      ],
      "stateMutability": "view",
      "type": "function"
    },
    {
      "inputs": [],
      "name": "nextDocumentId",
      "outputs": [
        {
          "internalType": "uint256",
          "name": "",
          "type": "uint256"
        }
      ],
      "stateMutability": "view",
      "type": "function"
    },
    {
      "inputs": [
        {
          "internalType": "string",
          "name": "cid",
          "type": "string"
        },
        {
          "internalType": "string",
          "name": "projectName",
          "type": "string"
        },
        {
          "internalType": "string",
          "name": "projectType",
          "type": "string"
        },
        {
          "internalType": "string",
          "name": "description",
          "type": "string"
        },
        {
          "internalType": "string",
          "name": "location",
          "type": "string"
        },
        {
          "internalType": "uint256",
          "name": "estimatedCredits",
          "type": "uint256"
        }
      ],
      "name": "registerDocument",
      "outputs": [
        {
          "internalType": "uint256",
          "name": "documentId",
          "type": "uint256"
        }
      ],
      "stateMutability": "nonpayable",
      "type": "function"
    },
    {
      "inputs": [
        {
          "internalType": "address",
          "name": "",
          "type": "address"
        },
        {
          "internalType": "uint256",
          "name": "",
          "type": "uint256"
        }
      ],
      "name": "userDocuments",
      "outputs": [
        {
          "internalType": "uint256",
          "name": "",
          "type": "uint256"
        }
      ],
      "stateMutability": "view",
      "type": "function"
    },
    {
      "inputs": [],
      "name": "verifierRegistry",
      "outputs": [
        {
          "internalType": "contract VerifierRegistry",
          "name": "",
          "type": "address"
        }
      ],
      "stateMutability": "view",
      "type": "function"
    }
  ],
  "bytecode": "0x60a03461007857601f6115c738819003918201601f19168301916001600160401b0383118484101761007d5780849260209460405283398101031261007857516001600160a01b0381169081900361007857608052600160025560405161153390816100948239608051818181610327015261059b0152f35b600080fd5b634e487b7160e01b600052604160045260246000fdfe608080604052600436101561001357600080fd5b60003560e01c90816311f581fe1461100657508063366d500e14610f095780633f9b250a14610eac578063577a1b9214610e54578063748f556b146105ca57806386a23a6b1461058557806390a4b162146104d75780639fa5f50b14610452578063a33e3a7e146102ec578063a57dfeac146101fb578063c2ed2b05146100e95763e90e7ad4146100a357600080fd5b346100e45760003660031901126100e45760025460001981019081116100ce57602090604051908152f35b634e487b7160e01b600052601160045260246000fd5b600080fd5b346100e45760203660031901126100e4576004356000526000602052604060002061011381611264565b60018201546001600160a01b03908116929061013160028301611264565b9061013e60038401611264565b9261014b60048201611264565b9361015860058301611264565b60068301549560078401549260088501549460090154966040519a8b9a610160808d528c0161018691611021565b9060208c01528a810360408c015261019d91611021565b89810360608b01526101ae91611021565b88810360808a01526101bf91611021565b87810360a08901526101d091611021565b9460c087015260e086015260ff8116151561010086015260081c166101208401526101408301520390f35b346100e4576020806003193601126100e4576001600160a01b0361021d61117c565b166000526001808252604060002091604051808483829654938481520190600052836000209260005b86868383106102d7575050505061025f92500384611243565b61026983516113eb565b926000835b610285575b60405180610281878261111a565b0390f35b81518110156102d2578061029c6102cc928461143b565b51600052600084526102b1604060002061144f565b6102bb828861143b565b526102c6818761143b565b5061130a565b8361026e565b610273565b86548552958101958995509093019201610246565b346100e4576020806003193601126100e4576040516306620a4360e31b81523360048281019190915235906001600160a01b039083816024817f000000000000000000000000000000000000000000000000000000000000000086165afa90811561044657600091610410575b50156103fe578160005260008352604060002090600182015416156103ec576008810180549060ff82166103da576001600160a81b03199091163360081b610100600160a81b03161760011790556009429101557f899d8c4141bfe8c7e5b60d02cfd3c3997debf672f198f5af99c17d47eb47807f604051924284523393a3005b6040516315aa204760e31b8152600490fd5b6040516328193b9d60e21b8152600490fd5b6040516312331aab60e11b8152600490fd5b90508381813d831161043f575b6104278183611243565b810103126100e4575180151581036100e45784610359565b503d61041d565b6040513d6000823e3d90fd5b346100e45760003660031901126100e457600254600019908181019081116100ce5761047d816113eb565b9160015b828111156104975760405180610281868261111a565b806000526000602052604060002090828101918183116100ce576104d2926104c16102c69261144f565b6104cb828961143b565b528661143b565b610481565b346100e4576020806003193601126100e4576001600160a01b036104f961117c565b1660005260019081815260406000209160405191828185549182815201908195600052826000209060005b818110610572575050508361053a910384611243565b60405192818401908285525180915260408401949160005b82811061055f5785870386f35b8351875295810195928101928401610552565b8254845292840192918501918501610524565b346100e45760003660031901126100e4576040517f00000000000000000000000000000000000000000000000000000000000000006001600160a01b03168152602090f35b346100e45760c03660031901126100e4576004356001600160401b0381116100e4576105fa9036906004016111c0565b906024356001600160401b0381116100e45761061a9036906004016111c0565b6044356001600160401b0381116100e4576106399036906004016111c0565b6064949194356001600160401b0381116100e45761065b9036906004016111c0565b9190956084356001600160401b0381116100e45761067d9036906004016111c0565b90918915610e42578615610e30576106a6988a956106e06106ec936106f8976002549d8e61130a565b6002556106c16040519a6106b98c611227565b36908d611319565b8a523360208b01526106d4368d8f611319565b60408b01523691611319565b60608801523691611319565b60808501523691611319565b60a082015260a43560c08201524260e082015260006101008201526000610120820152600061014082015284600052600060205260406000209080518051906001600160401b038211610a2157819061075185546111ed565b601f8111610de0575b50602090601f8311600114610d7a57600092610d6f575b50508160011b916000199060031b1c19161782555b6001820160018060a01b036020830151166bffffffffffffffffffffffff60a01b82541617905560408101518051906001600160401b038211610a215781906107d260028601546111ed565b601f8111610d1c575b50602090601f8311600114610caa57600092610c9f575b50508160011b916000199060031b1c19161760028301555b60608101518051906001600160401b038211610a2157819061082f60038601546111ed565b601f8111610c4c575b50602090601f8311600114610bda57600092610bcf575b50508160011b916000199060031b1c19161760038301555b60808101518051906001600160401b038211610a2157819061088c60048601546111ed565b601f8111610b7c575b50602090601f8311600114610b0a57600092610aff575b50508160011b916000199060031b1c19161760048301555b60a08101518051906001600160401b038211610a21576108e760058501546111ed565b601f8111610ab8575b50602090601f8311600114610a425791806009949261014094600092610a37575b50508160011b916000199060031b1c19161760058501555b60c0810151600685015560e0810151600785015561010081015160088086018054610120850151610100600160a81b03931b9290921692151560ff166001600160a81b031990921691909117919091179055015191015533600052600160205260406000209081549568010000000000000000871015610a2157610a1686946109db897f702a5a08597d0e5a410ff7c6f657b2a57d4b5b6cdb11b0c9315a1ca4386ce6f596600160209c018155611192565b81549060031b9088821b91600019901b1916179055610a0760405194859460408652604086019161135f565b908382038a850152339761135f565b0390a3604051908152f35b634e487b7160e01b600052604160045260246000fd5b015190508b80610911565b906005850160005260206000209160005b601f1985168110610aa0575092600994926001926101409583601f19811610610a87575b505050811b016005850155610929565b015160001960f88460031b161c191690558b8080610a77565b91926020600181928685015181550194019201610a53565b600585016000526020600020601f840160051c810160208510610af8575b601f830160051c82018110610aec5750506108f0565b60008155600101610ad6565b5080610ad6565b0151905089806108ac565b9250600485016000526020600020906000935b601f1984168510610b61576001945083601f19811610610b48575b505050811b0160048301556108c4565b015160001960f88460031b161c19169055898080610b38565b81810151835560209485019460019093019290910190610b1d565b909150600485016000526020600020601f840160051c810160208510610bc8575b90849392915b601f830160051c82018110610bb9575050610895565b60008155859450600101610ba3565b5080610b9d565b01519050898061084f565b9250600385016000526020600020906000935b601f1984168510610c31576001945083601f19811610610c18575b505050811b016003830155610867565b015160001960f88460031b161c19169055898080610c08565b81810151835560209485019460019093019290910190610bed565b909150600385016000526020600020601f840160051c810160208510610c98575b90849392915b601f830160051c82018110610c89575050610838565b60008155859450600101610c73565b5080610c6d565b0151905089806107f2565b9250600285016000526020600020906000935b601f1984168510610d01576001945083601f19811610610ce8575b505050811b01600283015561080a565b015160001960f88460031b161c19169055898080610cd8565b81810151835560209485019460019093019290910190610cbd565b909150600285016000526020600020601f840160051c810160208510610d68575b90849392915b601f830160051c82018110610d595750506107db565b60008155859450600101610d43565b5080610d3d565b015190508980610771565b6000868152602081209350601f198516905b818110610dc85750908460019594939210610daf575b505050811b018255610786565b015160001960f88460031b161c19169055898080610da2565b92936020600181928786015181550195019301610d8c565b909150846000526020600020601f840160051c810160208510610e29575b90849392915b601f830160051c82018110610e1a57505061075a565b60008155859450600101610e04565b5080610dfe565b604051636754d56f60e01b8152600490fd5b60405163063ee91d60e41b8152600490fd5b346100e45760403660031901126100e457610e6d61117c565b6001600160a01b03166000908152600160205260409020805460243591908210156100e457602091610e9e91611192565b90546040519160031b1c8152f35b346100e45760203660031901126100e457610ec5611397565b506004356000526000602052610ede604060002061144f565b60208101516001600160a01b0316156103ec5761028190604051918291602083526020830190611061565b346100e4576020806003193601126100e4576004358015158091036100e4576002546000198101919082116100ce57600060015b83811115610fc65750610f4f906113eb565b9260009060015b84811115610f6c5760405180610281888261111a565b806000526000825260406000208460ff600883015416151514610f99575b50610f949061130a565b610f56565b610f949193610faa610fbf9261144f565b610fb4828a61143b565b526102c6818961143b565b9290610f8a565b80600052600085528260ff60086040600020015416151514610ff1575b610fec9061130a565b610f3d565b90610ffe610fec9161130a565b919050610fe3565b346100e45760003660031901126100e4576020906002548152f35b919082519283825260005b84811061104d575050826000602080949584010152601f8019910116010190565b60208183018101518483018201520161102c565b906110758251610160808452830190611021565b916110de6110cc6110ba6110a860018060a01b039687602087015116602088015260408601518782036040890152611021565b60608501518682036060880152611021565b60808401518582036080870152611021565b60a083015184820360a0860152611021565b9260c082015160c084015260e082015160e084015261010080830151151590840152610120908183015116908301526101408091015191015290565b602080820190808352835180925260408301928160408460051b8301019501936000915b84831061114e5750505050505090565b909192939495848061116c600193603f198682030187528a51611061565b980193019301919493929061113e565b600435906001600160a01b03821682036100e457565b80548210156111aa5760005260206000200190600090565b634e487b7160e01b600052603260045260246000fd5b9181601f840112156100e4578235916001600160401b0383116100e457602083818601950101116100e457565b90600182811c9216801561121d575b602083101461120757565b634e487b7160e01b600052602260045260246000fd5b91607f16916111fc565b61016081019081106001600160401b03821117610a2157604052565b90601f801991011681019081106001600160401b03821117610a2157604052565b9060405191826000825492611278846111ed565b9081845260019485811690816000146112e757506001146112a4575b50506112a292500383611243565b565b9093915060005260209081600020936000915b8183106112cf5750506112a293508201013880611294565b855488840185015294850194879450918301916112b7565b9150506112a294506020925060ff191682840152151560051b8201013880611294565b60001981146100ce5760010190565b9291926001600160401b038211610a215760405191611342601f8201601f191660200184611243565b8294818452818301116100e4578281602093846000960137010152565b908060209392818452848401376000828201840152601f01601f1916010190565b6001600160401b038111610a215760051b60200190565b604051906113a482611227565b81610140606091828152600092836020830152806040830152808083015280608083015260a08201528260c08201528260e082015282610100820152826101208201520152565b906113f582611380565b6114026040519182611243565b8281528092611413601f1991611380565b019060005b82811061142457505050565b60209061142f611397565b82828501015201611418565b80518210156111aa5760209160051b010190565b9060405161145c81611227565b6101406009829461146c81611264565b845260018101546001600160a01b03908116602086015261148f60028301611264565b60408601526114a060038301611264565b60608601526114b160048301611264565b60808601526114c260058301611264565b60a0860152600682015460c0860152600782015460e0860152600882015460ff8116151561010087015260081c16610120850152015491015256fea2646970667358221220b5367b0483f2283e4cf6864124e360a879e852775c71096867bb8c543466091c64736f6c63430008120033",
  "linkReferences": {},
  "deployedLinkReferences": {}
}