{
  "_format": "hh-sol-artifact-1",
  "contractName": "RetirementCertificate",
  "sourceName": "contracts/RetirementCertificate.sol",
  "abi": [
    {
      "inputs": [],
      "stateMutability": "nonpayable",
      "type": "constructor"
    },
    {
      "anonymous": false,
      "inputs": [
        {
          "indexed": true,
          "internalType": "address",
          "name": "owner",
          "type": "address"
        },
        {
          "indexed": true,
          "internalType": "address",
          "name": "approved",
          "type": "address"
        },
        {
          "indexed": true,
          "internalType": "uint256",
          "name": "tokenId",
          "type": "uint256"
        }
      ],
      "name": "Approval",
      "type": "event"
    },
    {
      "anonymous": false,
      "inputs": [
        {
          "indexed": true,
          "internalType": "address",
          "name": "owner",
          "type": "address"
        },
        {
          "indexed": true,
          "internalType": "address",
          "name": "operator",
          "type": "address"
        },
        {
          "indexed": false,
          "internalType": "bool",
          "name": "approved",
          "type": "bool"
        }
      ],
      "name": "ApprovalForAll",
      "type": "event"
    },
    {
      "anonymous": false,
      "inputs": [
        {
          "indexed": false,
          "internalType": "uint256",
          "name": "_fromTokenId",
          "type": "uint256"
        },
        {
          "indexed": false,
          "internalType": "uint256",
          "name": "_toTokenId",
          "type": "uint256"
        }
      ],
      "name": "BatchMetadataUpdate",
      "type": "event"
    },
    {
      "anonymous": false,
      "inputs": [
        {
          "indexed": false,
          "internalType": "uint256",
          "name": "_tokenId",
          "type": "uint256"
        }
      ],
      "name": "MetadataUpdate",
      "type": "event"
    },
    {
      "anonymous": false,
      "inputs": [
        {
          "indexed": true,
          "internalType": "address",
          "name": "previousOwner",
          "type": "address"
        },
        {
          "indexed": true,
          "internalType": "address",
          "name": "newOwner",
          "type": "address"
        }
      ],
      "name": "OwnershipTransferred",
      "type": "event"
    },
    {
      "anonymous": false,
      "inputs": [
        {
          "indexed": true,
          "internalType": "address",
          "name": "from",
          "type": "address"
        },
        {
          "indexed": true,
          "internalType": "address",
          "name": "to",
          "type": "address"
        },
        {
          "indexed": true,
          "internalType": "uint256",
          "name": "tokenId",
          "type": "uint256"
        }
      ],
      "name": "Transfer",
      "type": "event"
    },
    {
      "inputs": [
        {
          "internalType": "address",
          "name": "to",
          "type": "address"
        },
        {
          "internalType": "uint256",
          "name": "tokenId",
          "type": "uint256"
        }
      ],
      "name": "approve",
      "outputs": [],
      "stateMutability": "nonpayable",
      "type": "function"
    },
    {
      "inputs": [
        {
          "internalType": "address",
          "name": "owner",
          "type": "address"
        }
      ],
      "name": "balanceOf",
      "outputs": [
        {
          "internalType": "uint256",
          "name": "",
          "type": "uint256"
        }
      ],
      "stateMutability": "view",
      "type": "function"
    },
    {
      "inputs": [
        {
          "internalType": "uint256",
          "name": "tokenId",
          "type": "uint256"
        }
      ],
      "name": "getApproved",
      "outputs": [
        {
          "internalType": "address",
          "name": "",
          "type": "address"
        }
      ],
      "stateMutability": "view",
      "type": "function"
    },
    {
      "inputs": [
        {
          "internalType": "address",
          "name": "owner",
          "type": "address"
        },
        {
          "internalType": "address",
          "name": "operator",
          "type": "address"
        }
      ],
      "name": "isApprovedForAll",
      "outputs": [
        {
          "internalType": "bool",
          "name": "",
          "type": "bool"
        }
      ],
      "stateMutability": "view",
      "type": "function"
    },
    {
      "inputs": [
        {
          "internalType": "address",
          "name": "to",
          "type": "address"
        },
        {
          "internalType": "string",
          "name": "metadataURI",
          "type": "string"
        }
      ],
      "name": "mintCertificate",
      "outputs": [
        {
          "internalType": "uint256",
          "name": "",
          "type": "uint256"
        }
      ],
      "stateMutability": "nonpayable",
      "type": "function"
    },
    {
      "inputs": [],
      "name": "name",
      "outputs": [
        {
          "internalType": "string",
          "name": "",
          "type": "string"
        }
      ],
      "stateMutability": "view",
      "type": "function"
    },
    {
      "inputs": [],
      "name": "nextId",
      "outputs": [
        {
          "internalType": "uint256",
          "name": "",
          "type": "uint256"
        }
      ],
      "stateMutability": "view",
      "type": "function"
    },
    {
      "inputs": [],
      "name": "owner",
      "outputs": [
        {
          "internalType": "address",
          "name": "",
          "type": "address"
        }
      ],
      "stateMutability": "view",
      "type": "function"
    },
    {
      "inputs": [
        {
          "internalType": "uint256",
          "name": "tokenId",
          "type": "uint256"
        }
      ],
      "name": "ownerOf",
      "outputs": [
        {
          "internalType": "address",
          "name": "",
          "type": "address"
        }
      ],
      "stateMutability": "view",
      "type": "function"
    },
    {
      "inputs": [],
      "name": "renounceOwnership",
      "outputs": [],
      "stateMutability": "nonpayable",
      "type": "function"
    },
    {
      "inputs": [
        {
          "internalType": "address",
          "name": "from",
          "type": "address"
        },
        {
          "internalType": "address",
          "name": "to",
          "type": "address"
        },
        {
          "internalType": "uint256",
          "name": "tokenId",
          "type": "uint256"
        }
      ],
      "name": "safeTransferFrom",
      "outputs": [],
      "stateMutability": "nonpayable",
      "type": "function"
    },
    {
      "inputs": [
        {
          "internalType": "address",
          "name": "from",
          "type": "address"
        },
        {
          "internalType": "address",
          "name": "to",
          "type": "address"
        },
        {
          "internalType": "uint256",
          "name": "tokenId",
          "type": "uint256"
        },
        {
          "internalType": "bytes",
          "name": "data",
          "type": "bytes"
        }
      ],
      "name": "safeTransferFrom",
      "outputs": [],
      "stateMutability": "nonpayable",
      "type": "function"
    },
    {
      "inputs": [
        {
          "internalType": "address",
          "name": "operator",
          "type": "address"
        },
        {
          "internalType": "bool",
          "name": "approved",
          "type": "bool"
        }
      ],
      "name": "setApprovalForAll",
      "outputs": [],
      "stateMutability": "nonpayable",
      "type": "function"
    },
    {
      "inputs": [
        {
          "internalType": "bytes4",
          "name": "interfaceId",
          "type": "bytes4"
        }
      ],
      "name": "supportsInterface",
      "outputs": [
        {
          "internalType": "bool",
          "name": "",
          "type": "bool"
        }
      ],
      "stateMutability": "view",
      "type": "function"
    },
    {
      "inputs": [],
      "name": "symbol",
      "outputs": [
        {
          "internalType": "string",
          "name": "",
          "type": "string"
        }
      ],
      "stateMutability": "view",
      "type": "function"
    },
    {
      "inputs": [
        {
          "internalType": "uint256",
          "name": "tokenId",
          "type": "uint256"
        }
      ],
      "name": "tokenURI",
      "outputs": [
        {
          "internalType": "string",
          "name": "",
          "type": "string"
        }
      ],
      "stateMutability": "view",
      "type": "function"
    },
    {
      "inputs": [
        {
          "internalType": "address",
          "name": "from",
          "type": "address"
        },
        {
          "internalType": "address",
          "name": "to",
          "type": "address"
        },
        {
          "internalType": "uint256",
          "name": "tokenId",
          "type": "uint256"
        }
      ],
      "name": "transferFrom",
      "outputs": [],
      "stateMutability": "nonpayable",
      "type": "function"
    },
    {
      "inputs": [
        {
          "internalType": "address",
          "name": "newOwner",
          "type": "address"
        }
      ],
      "name": "transferOwnership",
      "outputs": [],
      "stateMutability": "nonpayable",
      "type": "function"
    }
  ],
  "bytecode": "0x6080346200036c576001600160401b039060408181018381118382101762000356578152601582526020917f5265746972656d656e744365727469666963617465000000000000000000000083820152815193828501858110828211176200035657835260058552641490d1549560da1b84860152815181811162000356576000948554916001948584811c941680156200034b575b8385101462000337578190601f94858111620002e4575b5083908583116001146200028057899262000274575b5050600019600383901b1c191690851b1786555b8651928311620002605783548481811c9116801562000255575b828210146200024157828111620001f9575b50809183116001146200019257508495829394959262000186575b5050600019600383901b1c191690821b1790555b60078054336001600160a01b03198216811790925591519290916001600160a01b0316907f8be0079c531659141344cd1fd0a4f28419497f9722a3daafe3b4186f6b6457e09080a36114289081620003728239f35b0151905038806200011d565b90601f198316968487528287209287905b898210620001e1575050838596979810620001c7575b505050811b01905562000131565b015160001960f88460031b161c19169055388080620001b9565b808785968294968601518155019501930190620001a3565b8487528187208380860160051c82019284871062000237575b0160051c019085905b8281106200022b57505062000102565b8881550185906200021b565b9250819262000212565b634e487b7160e01b87526022600452602487fd5b90607f1690620000f0565b634e487b7160e01b86526041600452602486fd5b015190503880620000c2565b898052848a208894509190601f1984168b5b87828210620002cd5750508411620002b3575b505050811b018655620000d6565b015160001960f88460031b161c19169055388080620002a5565b8385015186558b9790950194938401930162000292565b9091508880528389208580850160051c8201928686106200032d575b918991869594930160051c01915b8281106200031e575050620000ac565b8b81558594508991016200030e565b9250819262000300565b634e487b7160e01b88526022600452602488fd5b93607f169362000095565b634e487b7160e01b600052604160045260246000fd5b600080fdfe6080604081815260048036101561001557600080fd5b600092833560e01c90816301ffc9a714610c955750806306fdde0314610bed5780630712249f1461087c578063081812fc1461085c578063095ea7b3146106ef57806323b872dd146106c557806342842e0e1461069c57806361b8ce8c1461067d5780636352211e1461064c57806370a08231146105b6578063715018a6146105565780638da5cb5b1461052d57806395d89b411461044a578063a22cb4651461037f578063b88d4fde14610317578063c87b56dd14610209578063e985e9c5146101b75763f2fde38b146100e957600080fd5b346101b35760203660031901126101b357610102610d5b565b9061010b610e68565b6001600160a01b03918216928315610161575050600754826bffffffffffffffffffffffff60a01b821617600755167f8be0079c531659141344cd1fd0a4f28419497f9722a3daafe3b4186f6b6457e08380a380f35b906020608492519162461bcd60e51b8352820152602660248201527f4f776e61626c653a206e6577206f776e657220697320746865207a65726f206160448201526564647265737360d01b6064820152fd5b8280fd5b50503461020557806003193601126102055760ff816020936101d7610d5b565b6101df610d76565b6001600160a01b0391821683526005875283832091168252855220549151911615158152f35b5080fd5b5090346101b357602091826003193601126103135735600081815260026020526040902054610242906001600160a01b03161515610ec0565b83526006825280832092815180948290805461025d81610f32565b918285526001918883821691826000146102ec5750506001146102ae575b5050506102aa93929161028f910386610df3565b815161029a81610dc1565b5251928284938452830190610d1b565b0390f35b8552868520879350859291905b8284106102d4575050508201018161028f6102aa61027b565b8054848b0186015289955088949093019281016102bb565b60ff19168782015293151560051b8601909301935084925061028f91506102aa905061027b565b8380fd5b83823461020557608036600319011261020557610332610d5b565b61033a610d76565b9060643567ffffffffffffffff811161037b573660238201121561037b576103789381602461036e93369301359101610e31565b916044359161100c565b80f35b8480fd5b5090346101b357806003193601126101b357610399610d5b565b906024359182151580930361037b576001600160a01b0316923384146104085750338452600560205280842083855260205280842060ff1981541660ff8416179055519081527f17307eab39ab6107e8899845ad3d59bd9653f200f220920489ca2b5937696c3160203392a380f35b6020606492519162461bcd60e51b8352820152601960248201527f4552433732313a20617070726f766520746f2063616c6c6572000000000000006044820152fd5b50503461020557816003193601126102055780519082600180549161046e83610f32565b8086529282811690811561050557506001146104a9575b505050610497826102aa940383610df3565b51918291602083526020830190610d1b565b94508085527fb10e2d527612073b26eecdfd717e6a320cf44b4afac2b0732d9fcbe2b7fa0cf65b8286106104ed575050506104978260206102aa9582010194610485565b805460208787018101919091529095019481016104d0565b6102aa97508693506020925061049794915060ff191682840152151560051b82010194610485565b50503461020557816003193601126102055760075490516001600160a01b039091168152602090f35b83346105b357806003193601126105b35761056f610e68565b600780546001600160a01b0319811690915581906001600160a01b03167f8be0079c531659141344cd1fd0a4f28419497f9722a3daafe3b4186f6b6457e08280a380f35b80fd5b50829034610205576020366003190112610205576001600160a01b036105da610d5b565b169081156105f75760208480858581526003845220549051908152f35b608490602085519162461bcd60e51b8352820152602960248201527f4552433732313a2061646472657373207a65726f206973206e6f7420612076616044820152683634b21037bbb732b960b91b6064820152fd5b5091346105b35760203660031901126105b3575061066c60209235610f0c565b90516001600160a01b039091168152f35b5050346102055781600319360112610205576020906008549051908152f35b50503461020557610378906106b036610d8c565b919251926106bd84610dc1565b85845261100c565b83346105b3576103786106d736610d8c565b916106ea6106e584336110a7565b610faa565b61116f565b50346101b357816003193601126101b357610708610d5b565b6024359290916001600160a01b039190828061072387610f0c565b1694169380851461080f578033149081156107f0575b501561078857848652602052842080546001600160a01b0319168317905561076083610f0c565b167f8c5be1e5ebec7d5bd14f71427d1e84f3dd0314c0f7b2291e5b200ac8c7c3b9258480a480f35b6020608492519162461bcd60e51b8352820152603d60248201527f4552433732313a20617070726f76652063616c6c6572206973206e6f7420746f60448201527f6b656e206f776e6572206f7220617070726f76656420666f7220616c6c0000006064820152fd5b90508652600560205281862033875260205260ff828720541638610739565b506020608492519162461bcd60e51b8352820152602160248201527f4552433732313a20617070726f76616c20746f2063757272656e74206f776e656044820152603960f91b6064820152fd5b5091346105b35760203660031901126105b3575061066c60209235610f6c565b50346101b357816003193601126101b357610895610d5b565b9160249182359067ffffffffffffffff808311610be95736602384011215610be9578282013592818411610be55736868583010111610be5576108d6610e68565b6008549760001991828a14610bd3576001998a0160088190556001600160a01b03909916988915610b91576000818152600260205260409020546109af92919061092c906001600160a01b031615155b156113a6565b60008181526002602052604090205461094f906001600160a01b03161515610926565b8a84526003602090815289852080548e0190558185526002815289852080546001600160a01b0319168d1790559a847fddf252ad1be2c89b69c2b068fc378daa952ba7f163c4a11628f55a4df523b3ef8180a46008549689369201610e31565b6000868152600260205260409020549097906001600160a01b031615610b395785825260068952868220948851948511610b285750506109ef8454610f32565b601f8111610ae6575b50969795969495889586906001601f861114610a675791849392917ff8e1a15aba9398e019f0b49df1a4fde98ee17ae345cb5f6b5e2c27f5033e8ce7999a859395610a5c575b50501b9260031b1c19161790555b8351908152a16008549051908152f35b015193503880610a3e565b91939290601f19841699868452888420935b8b8110610ad15750847ff8e1a15aba9398e019f0b49df1a4fde98ee17ae345cb5f6b5e2c27f5033e8ce79a9b10610ab9575b50505050811b019055610a4c565b01519060f88460031b161c1916905538808080610aab565b81830151855593860193918901918901610a79565b848252888220601f850160051c8101918a8610610b1e575b601f0160051c01905b818110610b1457506109f8565b8281558a01610b07565b9091508190610afe565b634e487b7160e01b83526041905281fd5b84602e6084928b8a519362461bcd60e51b85528401528201527f45524337323155524953746f726167653a2055524920736574206f66206e6f6e60448201526d32bc34b9ba32b73a103a37b5b2b760911b6064820152fd5b875162461bcd60e51b81526020818801819052818b01527f4552433732313a206d696e7420746f20746865207a65726f20616464726573736044820152606490fd5b634e487b7160e01b8252601185528782fd5b8780fd5b8680fd5b505034610205578160031936011261020557805190828054610c0e81610f32565b808552916001918083169081156105055750600114610c3957505050610497826102aa940383610df3565b80809650527f290decd9548b62a8d60345a988386fc84ba6bc95484008f6362f93160ef3e5635b828610610c7d575050506104978260206102aa9582010194610485565b80546020878701810191909152909501948101610c60565b925050346101b35760203660031901126101b3573563ffffffff60e01b81168091036101b35760209250632483248360e11b8114908115610cd8575b5015158152f35b6380ac58cd60e01b811491508115610d0a575b8115610cf9575b5038610cd1565b6301ffc9a760e01b14905038610cf2565b635b5e139f60e01b81149150610ceb565b919082519283825260005b848110610d47575050826000602080949584010152601f8019910116010190565b602081830181015184830182015201610d26565b600435906001600160a01b0382168203610d7157565b600080fd5b602435906001600160a01b0382168203610d7157565b6060906003190112610d71576001600160a01b03906004358281168103610d7157916024359081168103610d71579060443590565b6020810190811067ffffffffffffffff821117610ddd57604052565b634e487b7160e01b600052604160045260246000fd5b90601f8019910116810190811067ffffffffffffffff821117610ddd57604052565b67ffffffffffffffff8111610ddd57601f01601f191660200190565b929192610e3d82610e15565b91610e4b6040519384610df3565b829481845281830111610d71578281602093846000960137010152565b6007546001600160a01b03163303610e7c57565b606460405162461bcd60e51b815260206004820152602060248201527f4f776e61626c653a2063616c6c6572206973206e6f7420746865206f776e65726044820152fd5b15610ec757565b60405162461bcd60e51b815260206004820152601860248201527f4552433732313a20696e76616c696420746f6b656e20494400000000000000006044820152606490fd5b6000908152600260205260409020546001600160a01b0316610f2f811515610ec0565b90565b90600182811c92168015610f62575b6020831014610f4c57565b634e487b7160e01b600052602260045260246000fd5b91607f1691610f41565b600081815260026020526040902054610f8f906001600160a01b03161515610ec0565b6000908152600460205260409020546001600160a01b031690565b15610fb157565b60405162461bcd60e51b815260206004820152602d60248201527f4552433732313a2063616c6c6572206973206e6f7420746f6b656e206f776e6560448201526c1c881bdc88185c1c1c9bdd9959609a1b6064820152608490fd5b906110309392916110206106e584336110a7565b61102b83838361116f565b611285565b1561103757565b60405162461bcd60e51b81528061105060048201611054565b0390fd5b60809060208152603260208201527f4552433732313a207472616e7366657220746f206e6f6e20455243373231526560408201527131b2b4bb32b91034b6b83632b6b2b73a32b960711b60608201520190565b906001600160a01b0380806110bb84610f0c565b169316918383149384156110ee575b5083156110d8575b50505090565b6110e491929350610f6c565b16143880806110d2565b909350600052600560205260406000208260005260205260ff6040600020541692386110ca565b1561111c57565b60405162461bcd60e51b815260206004820152602560248201527f4552433732313a207472616e736665722066726f6d20696e636f72726563742060448201526437bbb732b960d91b6064820152608490fd5b906111979161117d84610f0c565b6001600160a01b0393918416928492909183168414611115565b1691821561123457816111b4916111ad86610f0c565b1614611115565b7fddf252ad1be2c89b69c2b068fc378daa952ba7f163c4a11628f55a4df523b3ef60008481526004602052604081206bffffffffffffffffffffffff60a01b9081815416905583825260036020526040822060001981540190558482526040822060018154019055858252600260205284604083209182541617905580a4565b60405162461bcd60e51b8152602060048201526024808201527f4552433732313a207472616e7366657220746f20746865207a65726f206164646044820152637265737360e01b6064820152608490fd5b9293600093909291803b1561139b579484916112df9660405180948193630a85bd0160e11b9788845233600485015260018060a01b0380921660248501526044840152608060648401528260209b8c976084830190610d1b565b0393165af184918161135b575b5061134a575050503d600014611342573d61130681610e15565b906113146040519283610df3565b81528091833d92013e5b8051918261133f5760405162461bcd60e51b81528061105060048201611054565b01fd5b50606061131e565b6001600160e01b0319161492509050565b9091508581813d8311611394575b6113738183610df3565b8101031261037b57516001600160e01b03198116810361037b5790386112ec565b503d611369565b505050915050600190565b156113ad57565b60405162461bcd60e51b815260206004820152601c60248201527f4552433732313a20746f6b656e20616c7265616479206d696e746564000000006044820152606490fdfea2646970667358221220f17865dc6254b79582b4c8083969b5750cb12cb04cae5e8210a0097da0f157af64736f6c63430008120033",
  "linkReferences": {},
  "deployedLinkReferences": {}
}