{
  "_format": "hh-sol-artifact-1",
  "contractName": "CarbonGovernor",
  "sourceName": "contracts/CarbonGovernor.sol",
  "abi": [
    {
      "inputs": [
        {
          "internalType": "contract IVotes",
          "name": "_token",
          "type": "address"
        }
      ],
      "stateMutability": "nonpayable",
      "type": "constructor"
    },
    {
      "inputs": [],
      "name": "Empty",
      "type": "error"
    },
    {
      "inputs": [],
      "name": "InvalidShortString",
      "type": "error"
    },
    {
      "inputs": [
        {
          "internalType": "string",
          "name": "str",
          "type": "string"
        }
      ],
      "name": "StringTooLong",
      "type": "error"
    },
    {
      "anonymous": false,
      "inputs": [],
      "name": "EIP712DomainChanged",
      "type": "event"
    },
    {
      "anonymous": false,
      "inputs": [
        {
          "indexed": false,
          "internalType": "uint256",
          "name": "proposalId",
          "type": "uint256"
        }
      ],
      "name": "ProposalCanceled",
      "type": "event"
    },
    {
      "anonymous": false,
      "inputs": [
        {
          "indexed": false,
          "internalType": "uint256",
          "name": "proposalId",
          "type": "uint256"
        },
        {
          "indexed": false,
          "internalType": "address",
          "name": "proposer",
          "type": "address"
        },
        {
          "indexed": false,
          "internalType": "address[]",
          "name": "targets",
          "type": "address[]"
        },
        {
          "indexed": false,
          "internalType": "uint256[]",
          "name": "values",
          "type": "uint256[]"
        },
        {
          "indexed": false,
          "internalType": "string[]",
          "name": "signatures",
          "type": "string[]"
        },
        {
          "indexed": false,
          "internalType": "bytes[]",
          "name": "calldatas",
          "type": "bytes[]"
        },
        {
          "indexed": false,
          "internalType": "uint256",
          "name": "voteStart",
          "type": "uint256"
        },
        {
          "indexed": false,
          "internalType": "uint256",
          "name": "voteEnd",
          "type": "uint256"
        },
        {
          "indexed": false,
          "internalType": "string",
          "name": "description",
          "type": "string"
        }
      ],
      "name": "ProposalCreated",
      "type": "event"
    },
    {
      "anonymous": false,
      "inputs": [
        {
          "indexed": false,
          "internalType": "uint256",
          "name": "proposalId",
          "type": "uint256"
        }
      ],
      "name": "ProposalExecuted",
      "type": "event"
    },
    {
      "anonymous": false,
      "inputs": [
        {
          "indexed": false,
          "internalType": "uint256",
          "name": "oldProposalThreshold",
          "type": "uint256"
        },
        {
          "indexed": false,
          "internalType": "uint256",
          "name": "newProposalThreshold",
          "type": "uint256"
        }
      ],
      "name": "ProposalThresholdSet",
      "type": "event"
    },
    {
      "anonymous": false,
      "inputs": [
        {
          "indexed": false,
          "internalType": "uint256",
          "name": "oldQuorumNumerator",
          "type": "uint256"
        },
        {
          "indexed": false,
          "internalType": "uint256",
          "name": "newQuorumNumerator",
          "type": "uint256"
        }
      ],
      "name": "QuorumNumeratorUpdated",
      "type": "event"
    },
    {
      "anonymous": false,
      "inputs": [
        {
          "indexed": true,
          "internalType": "address",
          "name": "voter",
          "type": "address"
        },
        {
          "indexed": false,
          "internalType": "uint256",
          "name": "proposalId",
          "type": "uint256"
        },
        {
          "indexed": false,
          "internalType": "uint8",
          "name": "support",
          "type": "uint8"
        },
        {
          "indexed": false,
          "internalType": "uint256",
          "name": "weight",
          "type": "uint256"
        },
        {
          "indexed": false,
          "internalType": "string",
          "name": "reason",
          "type": "string"
        }
      ],
      "name": "VoteCast",
      "type": "event"
    },
    {
      "anonymous": false,
      "inputs": [
        {
          "indexed": true,
          "internalType": "address",
          "name": "voter",
          "type": "address"
        },
        {
          "indexed": false,
          "internalType": "uint256",
          "name": "proposalId",
          "type": "uint256"
        },
        {
          "indexed": false,
          "internalType": "uint8",
          "name": "support",
          "type": "uint8"
        },
        {
          "indexed": false,
          "internalType": "uint256",
          "name": "weight",
          "type": "uint256"
        },
        {
          "indexed": false,
          "internalType": "string",
          "name": "reason",
          "type": "string"
        },
        {
          "indexed": false,
          "internalType": "bytes",
          "name": "params",
          "type": "bytes"
        }
      ],
      "name": "VoteCastWithParams",
      "type": "event"
    },
    {
      "anonymous": false,
      "inputs": [
        {
          "indexed": false,
          "internalType": "uint256",
          "name": "oldVotingDelay",
          "type": "uint256"
        },
        {
          "indexed": false,
          "internalType": "uint256",
          "name": "newVotingDelay",
          "type": "uint256"
        }
      ],
      "name": "VotingDelaySet",
      "type": "event"
    },
    {
      "anonymous": false,
      "inputs": [
        {
          "indexed": false,
          "internalType": "uint256",
          "name": "oldVotingPeriod",
          "type": "uint256"
        },
        {
          "indexed": false,
          "internalType": "uint256",
          "name": "newVotingPeriod",
          "type": "uint256"
        }
      ],
      "name": "VotingPeriodSet",
      "type": "event"
    },
    {
      "inputs": [],
      "name": "BALLOT_TYPEHASH",
      "outputs": [
        {
          "internalType": "bytes32",
          "name": "",
          "type": "bytes32"
        }
      ],
      "stateMutability": "view",
      "type": "function"
    },
    {
      "inputs": [],
      "name": "CLOCK_MODE",
      "outputs": [
        {
          "internalType": "string",
          "name": "",
          "type": "string"
        }
      ],
      "stateMutability": "view",
      "type": "function"
    },
    {
      "inputs": [],
      "name": "COUNTING_MODE",
      "outputs": [
        {
          "internalType": "string",
          "name": "",
          "type": "string"
        }
      ],
      "stateMutability": "pure",
      "type": "function"
    },
    {
      "inputs": [],
      "name": "EXTENDED_BALLOT_TYPEHASH",
      "outputs": [
        {
          "internalType": "bytes32",
          "name": "",
          "type": "bytes32"
        }
      ],
      "stateMutability": "view",
      "type": "function"
    },
    {
      "inputs": [
        {
          "internalType": "address[]",
          "name": "targets",
          "type": "address[]"
        },
        {
          "internalType": "uint256[]",
          "name": "values",
          "type": "uint256[]"
        },
        {
          "internalType": "bytes[]",
          "name": "calldatas",
          "type": "bytes[]"
        },
        {
          "internalType": "bytes32",
          "name": "descriptionHash",
          "type": "bytes32"
        }
      ],
      "name": "cancel",
      "outputs": [
        {
          "internalType": "uint256",
          "name": "",
          "type": "uint256"
        }
      ],
      "stateMutability": "nonpayable",
      "type": "function"
    },
    {
      "inputs": [
        {
          "internalType": "uint256",
          "name": "proposalId",
          "type": "uint256"
        },
        {
          "internalType": "uint8",
          "name": "support",
          "type": "uint8"
        }
      ],
      "name": "castVote",
      "outputs": [
        {
          "internalType": "uint256",
          "name": "",
          "type": "uint256"
        }
      ],
      "stateMutability": "nonpayable",
      "type": "function"
    },
    {
      "inputs": [
        {
          "internalType": "uint256",
          "name": "proposalId",
          "type": "uint256"
        },
        {
          "internalType": "uint8",
          "name": "support",
          "type": "uint8"
        },
        {
          "internalType": "uint8",
          "name": "v",
          "type": "uint8"
        },
        {
          "internalType": "bytes32",
          "name": "r",
          "type": "bytes32"
        },
        {
          "internalType": "bytes32",
          "name": "s",
          "type": "bytes32"
        }
      ],
      "name": "castVoteBySig",
      "outputs": [
        {
          "internalType": "uint256",
          "name": "",
          "type": "uint256"
        }
      ],
      "stateMutability": "nonpayable",
      "type": "function"
    },
    {
      "inputs": [
        {
          "internalType": "uint256",
          "name": "proposalId",
          "type": "uint256"
        },
        {
          "internalType": "uint8",
          "name": "support",
          "type": "uint8"
        },
        {
          "internalType": "string",
          "name": "reason",
          "type": "string"
        }
      ],
      "name": "castVoteWithReason",
      "outputs": [
        {
          "internalType": "uint256",
          "name": "",
          "type": "uint256"
        }
      ],
      "stateMutability": "nonpayable",
      "type": "function"
    },
    {
      "inputs": [
        {
          "internalType": "uint256",
          "name": "proposalId",
          "type": "uint256"
        },
        {
          "internalType": "uint8",
          "name": "support",
          "type": "uint8"
        },
        {
          "internalType": "string",
          "name": "reason",
          "type": "string"
        },
        {
          "internalType": "bytes",
          "name": "params",
          "type": "bytes"
        }
      ],
      "name": "castVoteWithReasonAndParams",
      "outputs": [
        {
          "internalType": "uint256",
          "name": "",
          "type": "uint256"
        }
      ],
      "stateMutability": "nonpayable",
      "type": "function"
    },
    {
      "inputs": [
        {
          "internalType": "uint256",
          "name": "proposalId",
          "type": "uint256"
        },
        {
          "internalType": "uint8",
          "name": "support",
          "type": "uint8"
        },
        {
          "internalType": "string",
          "name": "reason",
          "type": "string"
        },
        {
          "internalType": "bytes",
          "name": "params",
          "type": "bytes"
        },
        {
          "internalType": "uint8",
          "name": "v",
          "type": "uint8"
        },
        {
          "internalType": "bytes32",
          "name": "r",
          "type": "bytes32"
        },
        {
          "internalType": "bytes32",
          "name": "s",
          "type": "bytes32"
        }
      ],
      "name": "castVoteWithReasonAndParamsBySig",
      "outputs": [
        {
          "internalType": "uint256",
          "name": "",
          "type": "uint256"
        }
      ],
      "stateMutability": "nonpayable",
      "type": "function"
    },
    {
      "inputs": [],
      "name": "clock",
      "outputs": [
        {
          "internalType": "uint48",
          "name": "",
          "type": "uint48"
        }
      ],
      "stateMutability": "view",
      "type": "function"
    },
    {
      "inputs": [],
      "name": "eip712Domain",
      "outputs": [
        {
          "internalType": "bytes1",
          "name": "fields",
          "type": "bytes1"
        },
        {
          "internalType": "string",
          "name": "name",
          "type": "string"
        },
        {
          "internalType": "string",
          "name": "version",
          "type": "string"
        },
        {
          "internalType": "uint256",
          "name": "chainId",
          "type": "uint256"
        },
        {
          "internalType": "address",
          "name": "verifyingContract",
          "type": "address"
        },
        {
          "internalType": "bytes32",
          "name": "salt",
          "type": "bytes32"
        },
        {
          "internalType": "uint256[]",
          "name": "extensions",
          "type": "uint256[]"
        }
      ],
      "stateMutability": "view",
      "type": "function"
    },
    {
      "inputs": [
        {
          "internalType": "address[]",
          "name": "targets",
          "type": "address[]"
        },
        {
          "internalType": "uint256[]",
          "name": "values",
          "type": "uint256[]"
        },
        {
          "internalType": "bytes[]",
          "name": "calldatas",
          "type": "bytes[]"
        },
        {
          "internalType": "bytes32",
          "name": "descriptionHash",
          "type": "bytes32"
        }
      ],
      "name": "execute",
      "outputs": [
        {
          "internalType": "uint256",
          "name": "",
          "type": "uint256"
        }
      ],
      "stateMutability": "payable",
      "type": "function"
    },
    {
      "inputs": [
        {
          "internalType": "address",
          "name": "account",
          "type": "address"
        },
        {
          "internalType": "uint256",
          "name": "timepoint",
          "type": "uint256"
        }
      ],
      "name": "getVotes",
      "outputs": [
        {
          "internalType": "uint256",
          "name": "",
          "type": "uint256"
        }
      ],
      "stateMutability": "view",
      "type": "function"
    },
    {
      "inputs": [
        {
          "internalType": "address",
          "name": "account",
          "type": "address"
        },
        {
          "internalType": "uint256",
          "name": "timepoint",
          "type": "uint256"
        },
        {
          "internalType": "bytes",
          "name": "params",
          "type": "bytes"
        }
      ],
      "name": "getVotesWithParams",
      "outputs": [
        {
          "internalType": "uint256",
          "name": "",
          "type": "uint256"
        }
      ],
      "stateMutability": "view",
      "type": "function"
    },
    {
      "inputs": [
        {
          "internalType": "uint256",
          "name": "proposalId",
          "type": "uint256"
        },
        {
          "internalType": "address",
          "name": "account",
          "type": "address"
        }
      ],
      "name": "hasVoted",
      "outputs": [
        {
          "internalType": "bool",
          "name": "",
          "type": "bool"
        }
      ],
      "stateMutability": "view",
      "type": "function"
    },
    {
      "inputs": [
        {
          "internalType": "address[]",
          "name": "targets",
          "type": "address[]"
        },
        {
          "internalType": "uint256[]",
          "name": "values",
          "type": "uint256[]"
        },
        {
          "internalType": "bytes[]",
          "name": "calldatas",
          "type": "bytes[]"
        },
        {
          "internalType": "bytes32",
          "name": "descriptionHash",
          "type": "bytes32"
        }
      ],
      "name": "hashProposal",
      "outputs": [
        {
          "internalType": "uint256",
          "name": "",
          "type": "uint256"
        }
      ],
      "stateMutability": "pure",
      "type": "function"
    },
    {
      "inputs": [],
      "name": "name",
      "outputs": [
        {
          "internalType": "string",
          "name": "",
          "type": "string"
        }
      ],
      "stateMutability": "view",
      "type": "function"
    },
    {
      "inputs": [
        {
          "internalType": "address",
          "name": "",
          "type": "address"
        },
        {
          "internalType": "address",
          "name": "",
          "type": "address"
        },
        {
          "internalType": "uint256[]",
          "name": "",
          "type": "uint256[]"
        },
        {
          "internalType": "uint256[]",
          "name": "",
          "type": "uint256[]"
        },
        {
          "internalType": "bytes",
          "name": "",
          "type": "bytes"
        }
      ],
      "name": "onERC1155BatchReceived",
      "outputs": [
        {
          "internalType": "bytes4",
          "name": "",
          "type": "bytes4"
        }
      ],
      "stateMutability": "nonpayable",
      "type": "function"
    },
    {
      "inputs": [
        {
          "internalType": "address",
          "name": "",
          "type": "address"
        },
        {
          "internalType": "address",
          "name": "",
          "type": "address"
        },
        {
          "internalType": "uint256",
          "name": "",
          "type": "uint256"
        },
        {
          "internalType": "uint256",
          "name": "",
          "type": "uint256"
        },
        {
          "internalType": "bytes",
          "name": "",
          "type": "bytes"
        }
      ],
      "name": "onERC1155Received",
      "outputs": [
        {
          "internalType": "bytes4",
          "name": "",
          "type": "bytes4"
        }
      ],
      "stateMutability": "nonpayable",
      "type": "function"
    },
    {
      "inputs": [
        {
          "internalType": "address",
          "name": "",
          "type": "address"
        },
        {
          "internalType": "address",
          "name": "",
          "type": "address"
        },
        {
          "internalType": "uint256",
          "name": "",
          "type": "uint256"
        },
        {
          "internalType": "bytes",
          "name": "",
          "type": "bytes"
        }
      ],
      "name": "onERC721Received",
      "outputs": [
        {
          "internalType": "bytes4",
          "name": "",
          "type": "bytes4"
        }
      ],
      "stateMutability": "nonpayable",
      "type": "function"
    },
    {
      "inputs": [
        {
          "internalType": "uint256",
          "name": "proposalId",
          "type": "uint256"
        }
      ],
      "name": "proposalDeadline",
      "outputs": [
        {
          "internalType": "uint256",
          "name": "",
          "type": "uint256"
        }
      ],
      "stateMutability": "view",
      "type": "function"
    },
    {
      "inputs": [
        {
          "internalType": "uint256",
          "name": "proposalId",
          "type": "uint256"
        }
      ],
      "name": "proposalProposer",
      "outputs": [
        {
          "internalType": "address",
          "name": "",
          "type": "address"
        }
      ],
      "stateMutability": "view",
      "type": "function"
    },
    {
      "inputs": [
        {
          "internalType": "uint256",
          "name": "proposalId",
          "type": "uint256"
        }
      ],
      "name": "proposalSnapshot",
      "outputs": [
        {
          "internalType": "uint256",
          "name": "",
          "type": "uint256"
        }
      ],
      "stateMutability": "view",
      "type": "function"
    },
    {
      "inputs": [],
      "name": "proposalThreshold",
      "outputs": [
        {
          "internalType": "uint256",
          "name": "",
          "type": "uint256"
        }
      ],
      "stateMutability": "view",
      "type": "function"
    },
    {
      "inputs": [
        {
          "internalType": "uint256",
          "name": "proposalId",
          "type": "uint256"
        }
      ],
      "name": "proposalVotes",
      "outputs": [
        {
          "internalType": "uint256",
          "name": "againstVotes",
          "type": "uint256"
        },
        {
          "internalType": "uint256",
          "name": "forVotes",
          "type": "uint256"
        },
        {
          "internalType": "uint256",
          "name": "abstainVotes",
          "type": "uint256"
        }
      ],
      "stateMutability": "view",
      "type": "function"
    },
    {
      "inputs": [
        {
          "internalType": "address[]",
          "name": "targets",
          "type": "address[]"
        },
        {
          "internalType": "uint256[]",
          "name": "values",
          "type": "uint256[]"
        },
        {
          "internalType": "bytes[]",
          "name": "calldatas",
          "type": "bytes[]"
        },
        {
          "internalType": "string",
          "name": "description",
          "type": "string"
        }
      ],
      "name": "propose",
      "outputs": [
        {
          "internalType": "uint256",
          "name": "",
          "type": "uint256"
        }
      ],
      "stateMutability": "nonpayable",
      "type": "function"
    },
    {
      "inputs": [
        {
          "internalType": "uint256",
          "name": "blockNumber",
          "type": "uint256"
        }
      ],
      "name": "quorum",
      "outputs": [
        {
          "internalType": "uint256",
          "name": "",
          "type": "uint256"
        }
      ],
      "stateMutability": "view",
      "type": "function"
    },
    {
      "inputs": [],
      "name": "quorumDenominator",
      "outputs": [
        {
          "internalType": "uint256",
          "name": "",
          "type": "uint256"
        }
      ],
      "stateMutability": "view",
      "type": "function"
    },
    {
      "inputs": [
        {
          "internalType": "uint256",
          "name": "timepoint",
          "type": "uint256"
        }
      ],
      "name": "quorumNumerator",
      "outputs": [
        {
          "internalType": "uint256",
          "name": "",
          "type": "uint256"
        }
      ],
      "stateMutability": "view",
      "type": "function"
    },
    {
      "inputs": [],
      "name": "quorumNumerator",
      "outputs": [
        {
          "internalType": "uint256",
          "name": "",
          "type": "uint256"
        }
      ],
      "stateMutability": "view",
      "type": "function"
    },
    {
      "inputs": [
        {
          "internalType": "address",
          "name": "target",
          "type": "address"
        },
        {
          "internalType": "uint256",
          "name": "value",
          "type": "uint256"
        },
        {
          "internalType": "bytes",
          "name": "data",
          "type": "bytes"
        }
      ],
      "name": "relay",
      "outputs": [],
      "stateMutability": "payable",
      "type": "function"
    },
    {
      "inputs": [
        {
          "internalType": "uint256",
          "name": "newProposalThreshold",
          "type": "uint256"
        }
      ],
      "name": "setProposalThreshold",
      "outputs": [],
      "stateMutability": "nonpayable",
      "type": "function"
    },
    {
      "inputs": [
        {
          "internalType": "uint256",
          "name": "newVotingDelay",
          "type": "uint256"
        }
      ],
      "name": "setVotingDelay",
      "outputs": [],
      "stateMutability": "nonpayable",
      "type": "function"
    },
    {
      "inputs": [
        {
          "internalType": "uint256",
          "name": "newVotingPeriod",
          "type": "uint256"
        }
      ],
      "name": "setVotingPeriod",
      "outputs": [],
      "stateMutability": "nonpayable",
      "type": "function"
    },
    {
      "inputs": [
        {
          "internalType": "uint256",
          "name": "proposalId",
          "type": "uint256"
        }
      ],
      "name": "state",
      "outputs": [
        {
          "internalType": "enum IGovernor.ProposalState",
          "name": "",
          "type": "uint8"
        }
      ],
      "stateMutability": "view",
      "type": "function"
    },
    {
      "inputs": [
        {
          "internalType": "bytes4",
          "name": "interfaceId",
          "type": "bytes4"
        }
      ],
      "name": "supportsInterface",
      "outputs": [
        {
          "internalType": "bool",
          "name": "",
          "type": "bool"
        }
      ],
      "stateMutability": "view",
      "type": "function"
    },
    {
      "inputs": [],
      "name": "token",
      "outputs": [
        {
          "internalType": "contract IERC5805",
          "name": "",
          "type": "address"
        }
      ],
      "stateMutability": "view",
      "type": "function"
    },
    {
      "inputs": [
        {
          "internalType": "uint256",
          "name": "newQuorumNumerator",
          "type": "uint256"
        }
      ],
      "name": "updateQuorumNumerator",
      "outputs": [],
      "stateMutability": "nonpayable",
      "type": "function"
    },
    {
      "inputs": [],
      "name": "version",
      "outputs": [
        {
          "internalType": "string",
          "name": "",
          "type": "string"
        }
      ],
      "stateMutability": "view",
      "type": "function"
    },
    {
      "inputs": [],
      "name": "votingDelay",
      "outputs": [
        {
          "internalType": "uint256",
          "name": "",
          "type": "uint256"
        }
      ],
      "stateMutability": "view",
      "type": "function"
    },
    {
      "inputs": [],
      "name": "votingPeriod",
      "outputs": [
        {
          "internalType": "uint256",
          "name": "",
          "type": "uint256"
        }
      ],
      "stateMutability": "view",
      "type": "function"
    },
    {
      "stateMutability": "payable",
      "type": "receive"
    }
  ],
  "bytecode": "0x61018060405234620000b3576200001f6200001962000141565b620001a8565b6040516137f1908162000d8a823960805181613202015260a051816132b7015260c051816131cc015260e05181613251015261010051816132770152610120518161119d015261014051816111c90152610160518181816112ff015281816116e201528181611803015281816118a501528181612350015281816127bb015281816129e901528181612ac00152612bc50152f35b600080fd5b634e487b7160e01b600052604160045260246000fd5b604081019081106001600160401b03821117620000ea57604052565b620000b8565b60c081019081106001600160401b03821117620000ea57604052565b601f909101601f19168101906001600160401b03821190821017620000ea57604052565b604051906200013f82620000ce565b565b6200459b602081380391826040519384926200015e82856200010c565b833981010312620000b357516001600160a01b0381168103620000b35790565b604051906200018d82620000ce565b600e8252565b60405190620001a282620000ce565b60018252565b62000279620001b66200017e565b602081016d21b0b93137b723b7bb32b93737b960911b8152620001d862000193565b906020820190603160f81b8252620001f084620009ae565b61012052620001ff8362000abc565b6101405283519020918260e05251902080610100524660a0526040519060208201927f8b73c3c69bb8fe3d512ecc4cf759cc79239f7b179b0ffacaa9a75d522b39400f8452604083015260608201524660808201523060a082015260a081526200026981620000f0565b5190206080523060c052620003f8565b62000283620004eb565b6200028d62000525565b6200029762000561565b6001600160a01b0316610160526200013f620005ff565b90600182811c92168015620002e0575b6020831014620002ca57565b634e487b7160e01b600052602260045260246000fd5b91607f1691620002be565b601f8111620002f8575050565b6000906002825260208220906020601f850160051c8301941062000339575b601f0160051c01915b8281106200032d57505050565b81815560010162000320565b909250829062000317565b601f811162000351575050565b60009081805260208220906020601f850160051c8301941062000391575b601f0160051c01915b8281106200038557505050565b81815560010162000378565b90925082906200036f565b90601f8211620003aa575050565b60019160009083825260208220906020601f850160051c83019410620003ed575b601f0160051c01915b828110620003e25750505050565b8181558301620003d4565b9092508290620003cb565b80519091906001600160401b038111620000ea5762000424816200041e600254620002ae565b620002eb565b602080601f831160011462000463575081929360009262000457575b50508160011b916000199060031b1c191617600255565b01519050388062000440565b6002600052601f198316949091907f405787fa12a823e0f2b7631cc41b3ba8828b3321ca811111fa75cd3aa3bb5ace926000905b878210620004d2575050836001959610620004b8575b505050811b01600255565b015160001960f88460031b161c19169055388080620004ad565b8060018596829496860151815501950193019062000497565b7fc565b045403dc03c2eea82b81a0465edad9e2e7fc4d97e11421c209da93d7a936040600654815190815260016020820152a16001600655565b6007546040519081527f7e3f7f0708a84de9203036abaa450dccc85ad5ff52f78c170f3edb55cf5e8828604061b2fa92836020820152a1600755565b7fccb45da8d5717e6c4544694297c4ba5cf151d455c9bb0ed4fc7a38411bc054616040600854815190815260006020820152a16000600855565b600b5468010000000000000000811015620000ea576001810180600b55811015620005e957600b6000526020600020019063ffffffff81511690602063ffffffff1991015160201b16179055565b634e487b7160e01b600052603260045260246000fd5b600b548015906000908215620006d0575050620006836000805160206200457b83398151915291600a54905b8115159081620006c7575b5062000688575b6200066a620006646200065e620006536200073a565b65ffffffffffff1690565b62000d23565b62000878565b5050604080519182526001602083015290918291820190565b0390a1565b620006c1620006978262000c51565b620006bb620006a562000130565b600081526001600160e01b039092166020830152565b6200059b565b6200063d565b90503862000636565b6000199181838101116200072657600b9052017f0175b7a638427703f0dbe7bb9bbf987a2551717b34e79f33b5b1008d1fa01db901546000805160206200457b83398151915291620006839160201c906200062b565b634e487b7160e01b81526011600452602490fd5b610160516040516324776b7d60e21b815290602090829060049082906001600160a01b03165afa809160009162000782575b50906200077f57506200077f4362000cbb565b90565b6020813d8211620007c7575b816200079d602093836200010c565b81010312620007c357519065ffffffffffff82168203620007c05750386200076c565b80fd5b5080fd5b3d91506200078e565b600019810191908211620007e057565b634e487b7160e01b600052601160045260246000fd5b604080519192919081016001600160401b03811182821017620000ea57604052602081935463ffffffff81168352811c910152565b156200083357565b60405162461bcd60e51b815260206004820152601b60248201527f436865636b706f696e743a2064656372656173696e67206b65797300000000006044820152606490fd5b600b54801562000985576200094d9181620008cd620008c76200089d602095620007d0565b600b6000527f0175b7a638427703f0dbe7bb9bbf987a2551717b34e79f33b5b1008d1fa01db90190565b620007f6565b91620008dd835163ffffffff1690565b620008f663ffffffff918284169283911611156200082b565b6200091262000909855163ffffffff1690565b63ffffffff1690565b036200095357506200092c6200089d6200093f92620007d0565b64010000000063ffffffff825416179055565b01516001600160e01b031690565b90600190565b6200097f9150620009736200096762000130565b63ffffffff9092168252565b6001818501526200059b565b6200093f565b50620009a690620009996200096762000130565b600160208201526200059b565b600090600190565b908151602090818110600014620009cd575050906200077f9062000bd4565b6001600160401b038111620000ea57600091620009f682620009f08554620002ae565b62000344565b80601f831160011462000a35575082939482939262000a29575b50508160011b916000199060031b1c191617905560ff90565b01519050388062000a10565b60008052601f198316957f290decd9548b62a8d60345a988386fc84ba6bc95484008f6362f93160ef3e563929185905b88821062000aa35750508360019596971062000a89575b505050811b01905560ff90565b015160001960f88460031b161c1916905538808062000a7c565b8060018596829496860151815501950193019062000a65565b90815160209081811060001462000adb575050906200077f9062000bd4565b6001600160401b038111620000ea5760019162000b048262000afe8554620002ae565b6200039c565b80601f831160011462000b4357508192939460009262000b37575b5050600019600383901b1c191690821b17905560ff90565b01519050388062000b1f565b6001600052601f198316959091907fb10e2d527612073b26eecdfd717e6a320cf44b4afac2b0732d9fcbe2b7fa0cf6926000905b88821062000b98575050838596971062000a8957505050811b01905560ff90565b80878596829496860151815501950193019062000b77565b60208151910151906020811062000bc5575090565b6000199060200360031b1b1690565b601f81511162000bef5762000be98162000bb0565b90511790565b6040519063305a27a960e01b82528160208060048301528251908160248401526000935b82851062000c37575050604492506000838284010152601f80199101168101030190fd5b848101820151868601604401529381019385935062000c13565b6001600160e01b039081811162000c66571690565b60405162461bcd60e51b815260206004820152602760248201527f53616665436173743a2076616c756520646f65736e27742066697420696e20326044820152663234206269747360c81b6064820152608490fd5b65ffffffffffff9081811162000ccf571690565b60405162461bcd60e51b815260206004820152602660248201527f53616665436173743a2076616c756520646f65736e27742066697420696e203460448201526538206269747360d01b6064820152608490fd5b63ffffffff9081811162000d35571690565b60405162461bcd60e51b815260206004820152602660248201527f53616665436173743a2076616c756520646f65736e27742066697420696e203360448201526532206269747360d01b6064820152608490fdfe6080604052600436101561001b575b361561001957600080fd5b005b60003560e01c806301ffc9a7146102bb57806302a251a3146102b657806303420181146102b157806306f3f9e6146102ac57806306fdde03146102a7578063143489d0146102a2578063150b7a021461029d5780632656227d146102985780632d63f693146102935780632fe3e2611461028e5780633932abb1146102895780633bccf4fd146102845780633e4f49e61461027f578063438596321461027a578063452115d6146102755780634bf5d7e914610270578063544ffc9c1461026b57806354fd4d501461026657806356781388146102615780635f398a141461025c57806360c4247f1461025757806370b0f660146102525780637b3c71d31461024d5780637d5e81e21461024857806384b0196e1461024357806391ddadf41461023e57806397c3d334146102395780639a802a6d14610234578063a7713a701461022f578063b58131b01461022a578063bc197c8114610225578063c01f9e3714610220578063c28bc2fa1461021b578063c59057e414610216578063dd4e2ba514610211578063deaaa7cc1461020c578063ea0217cf14610207578063eb9019d414610202578063ece40cc1146101fd578063f23a6e61146101f8578063f8ce560a146101f35763fc0c546a0361000e5761188f565b6117d3565b61177e565b611726565b61168a565b6115d7565b61159c565b61153e565b611522565b611470565b611438565b6113b0565b611392565b611377565b611295565b611279565b61124e565b611184565b6110b7565b611062565b61100a565b610fec565b610f7d565b610f2d565b610eeb565b610ea8565b610e78565b610db5565b610d60565b610d31565b610c64565b610c46565b610c0b565b610bd6565b610ad1565b6108b7565b610854565b610773565b6105bf565b610537565b61036b565b346103665760203660031901126103665760043563ffffffff60e01b81168091036103665761031e9063bf26d89760e01b8114908115610355575b8115610344575b8115610333575b8115610322575b5060405190151581529081906020820190565b0390f35b6301ffc9a760e01b1490503861030b565b630271189760e51b81149150610304565b63288ace0360e11b811491506102fd565b6379dd796f60e01b811491506102f6565b600080fd5b34610366576000366003190112610366576020600754604051908152f35b6024359060ff8216820361036657565b6044359060ff8216820361036657565b9181601f84011215610366578235916001600160401b038311610366576020838186019501011161036657565b634e487b7160e01b600052604160045260246000fd5b604081019081106001600160401b0382111761040757604052565b6103d6565b608081019081106001600160401b0382111761040757604052565b602081019081106001600160401b0382111761040757604052565b606081019081106001600160401b0382111761040757604052565b60c081019081106001600160401b0382111761040757604052565b90601f801991011681019081106001600160401b0382111761040757604052565b604051906104a6826103ec565b565b6040519060e082018281106001600160401b0382111761040757604052565b6001600160401b03811161040757601f01601f191660200190565b9291926104ee826104c7565b916104fc6040519384610478565b829481845281830111610366578281602093846000960137010152565b9080601f8301121561036657816020610534933591016104e2565b90565b346103665760e036600319011261036657610550610389565b6001600160401b03604435818111610366576105709036906004016103a9565b9160643590811161036657610589903690600401610519565b9260843560ff811681036103665761031e946105af9460c4359460a4359460043561239c565b6040519081529081906020820190565b34610366576020366003190112610366576004356105de3033146125dc565b606481116106a3577f0553476bf02ef2726e8ce5ced78d63e26e602e4a2257b1f559418e24b463399790610610612bf9565b80151580610699575b610662575b61064e61063f61063a61062f6129d4565b65ffffffffffff1690565b613736565b610648846135fe565b90612ef7565b5050604080519182526020820192909252a1005b61069461066e826135fe565b61068f610679610499565b600081526001600160e01b039092166020830152565b612e11565b61061e565b50600b5415610619565b60405162461bcd60e51b815260206004820152604360248201527f476f7665726e6f72566f74657351756f72756d4672616374696f6e3a2071756f60448201527f72756d4e756d657261746f72206f7665722071756f72756d44656e6f6d696e616064820152623a37b960e91b608482015260a490fd5b60005b83811061072d5750506000910152565b818101518382015260200161071d565b906020916107568151809281855285808601910161071a565b601f01601f1916010190565b90602061053492818152019061073d565b3461036657600080600319360112610851576040519080600254610796816118d4565b8085529160019180831690811561082757506001146107cc575b61031e856107c081870382610478565b60405191829182610762565b9250600283527f405787fa12a823e0f2b7631cc41b3ba8828b3321ca811111fa75cd3aa3bb5ace5b82841061080f5750505081016020016107c08261031e6107b0565b805460208587018101919091529093019281016107f4565b86955061031e969350602092506107c094915060ff191682840152151560051b82010192936107b0565b80fd5b34610366576020366003190112610366576004356000526003602052602060018060a01b0360406000205460401c16604051908152f35b600435906001600160a01b038216820361036657565b602435906001600160a01b038216820361036657565b34610366576080366003190112610366576108d061088b565b506108d96108a1565b506064356001600160401b038111610366576108f9903690600401610519565b50604051630a85bd0160e11b8152602090f35b6001600160401b0381116104075760051b60200190565b81601f820112156103665780359161093a8361090c565b926109486040519485610478565b808452602092838086019260051b820101928311610366578301905b828210610972575050505090565b81356001600160a01b0381168103610366578152908301908301610964565b81601f82011215610366578035916109a88361090c565b926109b66040519485610478565b808452602092838086019260051b820101928311610366578301905b8282106109e0575050505090565b813581529083019083016109d2565b9080601f8301121561036657813590610a078261090c565b92610a156040519485610478565b828452602092838086019160051b8301019280841161036657848301915b848310610a435750505050505090565b82356001600160401b038111610366578691610a6484848094890101610519565b815201920191610a33565b6080600319820112610366576001600160401b03916004358381116103665782610a9b91600401610923565b926024358181116103665783610ab391600401610991565b9260443591821161036657610aca916004016109ef565b9060643590565b610ae9610add36610a6f565b818385949693956119a7565b91610af383611a0b565b6008811015610bd15760048114908115610bbd575b5015610b6e5761031e936105af92610b3d6002610b2f876000526003602052604060002090565b01805460ff19166001179055565b6040518581527f712ae1383f79ac853f8d882153778e0260ef8f03b504e2866e0593e04d2b291f90602090a1612152565b60405162461bcd60e51b815260206004820152602160248201527f476f7665726e6f723a2070726f706f73616c206e6f74207375636365737366756044820152601b60fa1b6064820152608490fd5b60059150610bca81610d27565b1438610b08565b610d11565b3461036657602036600319011261036657600435600052600360205260206001600160401b0360406000205416604051908152f35b346103665760003660031901126103665760206040517fb3b3f3b703cd84ce352197dcff232b1b5d3cfb2025ce47cf04742d0651f1af888152f35b34610366576000366003190112610366576020600654604051908152f35b346103665760a03660031901126103665761031e6105af600435610c86610389565b610cfb610cf3610c94610399565b60405160208101917f150214d74d59b7d1e90c73fc22ef3d991dd0a76b046543d4d80ab92d2a50328f835286604083015260ff8616606083015260608252610cdb8261040c565b610cee60843593606435935190206131a3565b613127565b919091613007565b60405192610d0884610427565b60008452612437565b634e487b7160e01b600052602160045260246000fd5b60081115610bd157565b3461036657602036600319011261036657610d4d600435611a0b565b6040516008821015610bd1576020918152f35b3461036657604036600319011261036657602060ff610da9610d806108a1565b6004356000526009845260036040600020019060018060a01b0316600052602052604060002090565b54166040519015158152f35b3461036657610dc336610a6f565b90610dd0828285876119a7565b92610dda84611a0b565b6008811015610bd157610e335761031e94610e2e610e27610e1b610e0b6105af986000526003602052604060002090565b5460401c6001600160a01b031690565b6001600160a01b031690565b331461208d565b61220d565b60405162461bcd60e51b815260206004820152601c60248201527f476f7665726e6f723a20746f6f206c61746520746f2063616e63656c000000006044820152606490fd5b346103665760003660031901126103665761031e610e94612aaa565b60405191829160208352602083019061073d565b3461036657602036600319011261036657600435600052600960205260606040600020805490600260018201549101549060405192835260208301526040820152f35b346103665760003660031901126103665761031e604051610f0b816103ec565b60018152603160f81b602082015260405191829160208352602083019061073d565b34610366576040366003190112610366576020610f75610f4b610389565b604051610f5781610427565b6000815260405191610f6883610427565b60008352336004356124b3565b604051908152f35b3461036657608036600319011261036657610f96610389565b6001600160401b039060443582811161036657610fb79036906004016103a9565b909160643593841161036657610fe2610f7593610fda6020963690600401610519565b9336916104e2565b90336004356124b3565b34610366576020366003190112610366576020610f75600435612c76565b34610366576020366003190112610366576004356110293033146125dc565b60065460408051918252602082018390527fc565b045403dc03c2eea82b81a0465edad9e2e7fc4d97e11421c209da93d7a9391a1600655005b346103665760603660031901126103665761107b610389565b6044356001600160401b038111610366576020916110aa6110a3610f759336906004016103a9565b36916104e2565b60405191610f6883610427565b34610366576080366003190112610366576001600160401b03600435818111610366576110e8903690600401610923565b9060243581811161036657611101903690600401610991565b916044358281116103665761111a9036906004016109ef565b60643592831161036657366023840112156103665761031e9361114a6105af9436906024816004013591016104e2565b92611f14565b90815180825260208080930193019160005b828110611170575050505090565b835185529381019392810192600101611162565b346103665760003660031901126103665761121f6111c17f00000000000000000000000000000000000000000000000000000000000000006132dd565b61031e6111ed7f00000000000000000000000000000000000000000000000000000000000000006133d4565b61122d604051916111fd83610427565b60008352604051958695600f60f81b875260e0602088015260e087019061073d565b90858203604087015261073d565b90466060850152306080850152600060a085015283820360c0850152611150565b346103665760003660031901126103665760206112696129d4565b65ffffffffffff60405191168152f35b3461036657600036600319011261036657602060405160648152f35b34610366576060366003190112610366576112ae61088b565b6044356001600160401b038111610366576044916112d26020923690600401610519565b50604051630748d63560e31b81526001600160a01b039182166004820152602480359082015292839182907f0000000000000000000000000000000000000000000000000000000000000000165afa80156113725761031e91600091611344575b506040519081529081906020820190565b611365915060203d811161136b575b61135d8183610478565b810190612b85565b38611333565b503d611353565b6129c8565b34610366576000366003190112610366576020610f75612bf9565b34610366576000366003190112610366576020600854604051908152f35b346103665760a0366003190112610366576113c961088b565b506113d26108a1565b506001600160401b03604435818111610366576113f3903690600401610991565b506064358181116103665761140c903690600401610991565b5060843590811161036657611425903690600401610519565b5060405163bc197c8160e01b8152602090f35b3461036657602036600319011261036657600435600052600360205260206001600160401b0360016040600020015416604051908152f35b60603660031901126103665761148461088b565b604435906001600160401b03821161036657600080916114ab6100199436906004016103a9565b906114b73033146125dc565b81604051928392833781018481520391602435905af16114d5612122565b604051916114e283610442565b602883527f476f7665726e6f723a2072656c617920726576657274656420776974686f7574602084015267206d65737361676560c01b6040840152612e6b565b34610366576020610f7561153536610a6f565b929190916119a7565b346103665760003660031901126103665761031e60405161155e816103ec565b602081527f737570706f72743d627261766f2671756f72756d3d666f722c6162737461696e602082015260405191829160208352602083019061073d565b346103665760003660031901126103665760206040517f150214d74d59b7d1e90c73fc22ef3d991dd0a76b046543d4d80ab92d2a50328f8152f35b34610366576020366003190112610366576004356115f63033146125dc565b80156116355760075460408051918252602082018390527f7e3f7f0708a84de9203036abaa450dccc85ad5ff52f78c170f3edb55cf5e882891a1600755005b60405162461bcd60e51b815260206004820152602760248201527f476f7665726e6f7253657474696e67733a20766f74696e6720706572696f6420604482015266746f6f206c6f7760c81b6064820152608490fd5b3461036657604036600319011261036657604460206116a761088b565b60006040516116b581610427565b52604051630748d63560e31b81526001600160a01b039182166004820152602480359082015292839182907f0000000000000000000000000000000000000000000000000000000000000000165afa80156113725761031e9160009161134457506040519081529081906020820190565b34610366576020366003190112610366576004356117453033146125dc565b60085460408051918252602082018390527fccb45da8d5717e6c4544694297c4ba5cf151d455c9bb0ed4fc7a38411bc0546191a1600855005b346103665760a03660031901126103665761179761088b565b506117a06108a1565b506084356001600160401b038111610366576117c0903690600401610519565b5060405163f23a6e6160e01b8152602090f35b3461036657602036600319011261036657604051632394e7a360e21b8152600480359082018190526020826024817f00000000000000000000000000000000000000000000000000000000000000006001600160a01b03165afa9182156113725760009261186b575b5061184690612c76565b908181029181830414901517156118665760405160649091048152602090f35b611ba3565b6118469192506118889060203d811161136b5761135d8183610478565b919061183c565b34610366576000366003190112610366576040517f00000000000000000000000000000000000000000000000000000000000000006001600160a01b03168152602090f35b90600182811c92168015611904575b60208310146118ee57565b634e487b7160e01b600052602260045260246000fd5b91607f16916118e3565b90815180825260208080930193019160005b82811061192e575050505090565b83516001600160a01b031685529381019392810192600101611920565b908082519081815260208091019281808460051b8301019501936000915b8483106119795750505050505090565b9091929394958480611997600193601f198682030187528a5161073d565b9801930193019194939290611969565b92906119f392611a05926040519485926119e36119d0602086019960808b5260a087019061190e565b601f199687878303016040880152611150565b908585830301606086015261194b565b90608083015203908101835282610478565b51902090565b6002611a21826000526003602052604060002090565b015460ff8116611b505760081c60ff16611b4a57611a68611a5c611a4f836000526003602052604060002090565b546001600160401b031690565b6001600160401b031690565b8015611b0157611a7961062f6129d4565b80911015611afa57611aab611a5c6001611a9d856000526003602052604060002090565b01546001600160401b031690565b1015611af457611aba81612776565b9081611ad1575b5015611acc57600490565b600390565b611aee915060005260096020526040600020600181015490541090565b38611ac1565b50600190565b5050600090565b60405162461bcd60e51b815260206004820152601d60248201527f476f7665726e6f723a20756e6b6e6f776e2070726f706f73616c2069640000006044820152606490fd5b0390fd5b50600290565b5050600790565b15611b5e57565b60405162461bcd60e51b815260206004820152601d60248201527f476f7665726e6f723a2070726f706f73657220726573747269637465640000006044820152606490fd5b634e487b7160e01b600052601160045260246000fd5b60001981019190821161186657565b60271981019190821161186657565b15611bde57565b60405162461bcd60e51b815260206004820152603160248201527f476f7665726e6f723a2070726f706f73657220766f7465732062656c6f7720706044820152701c9bdc1bdcd85b081d1a1c995cda1bdb19607a1b6064820152608490fd5b15611c4457565b60405162461bcd60e51b815260206004820152602160248201527f476f7665726e6f723a20696e76616c69642070726f706f73616c206c656e67746044820152600d60fb1b6064820152608490fd5b15611c9a57565b60405162461bcd60e51b815260206004820152601860248201527f476f7665726e6f723a20656d7074792070726f706f73616c00000000000000006044820152606490fd5b15611ce657565b60405162461bcd60e51b815260206004820152602160248201527f476f7665726e6f723a2070726f706f73616c20616c72656164792065786973746044820152607360f81b6064820152608490fd5b906001820180921161186657565b9190820180921161186657565b815160208301516040808501516001600160401b039384169290911b68010000000000000000600160e01b0316919091176001600160e01b03199091161782556060830151608084015167ffffffffffffffff191691161760018201556104a69190611de69060c09060020192611ddf611dcd60a0830151151590565b859060ff801983541691151516179055565b0151151590565b815461ff00191690151560081b61ff0016179055565b90611e068261090c565b611e136040519182610478565b8281528092611e24601f199161090c565b019060005b828110611e3557505050565b806060602080938501015201611e29565b9592611e7990611e87939b9a9899969592885260209b60018060a01b03168c8901526101208060408a015288019061190e565b908682036060880152611150565b9784890360808601528251808a52818a019180808360051b8d01019501926000905b838210611ee657505050505061053496975090611ecd9184820360a086015261194b565b9360c083015260e082015261010081840391015261073d565b90919293958380611f058f93600194601f199082030186528a5161073d565b98019201920190939291611ea9565b6120877f7d84a6263ae0d98d3329bd7b46bb4e8d6f98cd35a7adb45c274c8b7fd5ebd5e09394611f4c611f478233612639565b611b57565b611f5761062f6129d4565b95611f77611f6d611f6789611bb9565b3361230e565b6008541115611bd7565b611fe5611f8c835160208501208388886119a7565b97611f9a8651885114611c3d565b611fa78651845114611c3d565b611fb386511515611c93565b611fdc6001600160401b03611fd5611a4f8c6000526003602052604060002090565b1615611cdf565b60065490611d43565b611ff160075482611d43565b9161206f611ffe83613667565b61204161200a86613667565b6120246120156104a8565b6001600160401b039094168452565b336020840152600060408401526001600160401b03166060830152565b60006080820152600060a0820152600060c082015261206a8b6000526003602052604060002090565b611d50565b6120798651611dfc565b604051978897338c8a611e46565b0390a190565b1561209457565b60405162461bcd60e51b815260206004820152602260248201527f476f7665726e6f723a206f6e6c792070726f706f7365722063616e2063616e63604482015261195b60f21b6064820152608490fd5b60001981146118665760010190565b634e487b7160e01b600052603260045260246000fd5b805182101561211d5760209160051b010190565b6120f3565b3d1561214d573d90612133826104c7565b916121416040519384610478565b82523d6000602084013e565b606090565b9092916040519361216285610442565b602785526020917f476f7665726e6f723a2063616c6c20726576657274656420776974686f75742083870152666d65737361676560c81b6040870152600093845b8151811015612203576121fe906121f88988806001600160a01b036121c88689612109565b51166121d4868b612109565b51906121e0878b612109565b51918c83519301915af16121f2612122565b90612e6b565b506120e4565b6121a3565b5050505050509050565b906122199392916119a7565b61222281611a0b565b6008811015610bd157600281141590816122f8575b816122e3575b501561229e5761226c600261225c836000526003602052604060002090565b01805461ff001916610100179055565b6040518181527f789cf55be980739dad1d0699b93b58e806b51c9d96619bfa8fe0a28abaa7b30c908060208101612087565b60405162461bcd60e51b815260206004820152601d60248201527f476f7665726e6f723a2070726f706f73616c206e6f74206163746976650000006044820152606490fd5b600791506122f081610d27565b14153861223d565b905061230381610d27565b600681141590612237565b90602090600060405161232081610427565b52604051630748d63560e31b81526001600160a01b039384166004820152602481019190915291829060449082907f0000000000000000000000000000000000000000000000000000000000000000165afa90811561137257600091612384575090565b610534915060203d811161136b5761135d8183610478565b949261242961053498612431949396986110a396610cee8a8a8d6123c1368a8c6104e2565b6020815191012090602081519101209060ff6040519360208501957fb3b3f3b703cd84ce352197dcff232b1b5d3cfb2025ce47cf04742d0651f1af8887526040860152166060840152608083015260a082015260a081526124218161045d565b5190206131a3565b949094613007565b926124b3565b9161053493916040519361244a85610427565b600085526124b3565b93909260ff61247f9361053497958752166020860152604085015260a0606085015260a084019061073d565b91608081840391015261073d565b909260ff608093610534969584521660208301526040820152816060820152019061073d565b929190836000526003602052604060002060016124cf86611a0b565b6124d881610d27565b0361258b576124f4611a5c6124fa92546001600160401b031690565b82612b94565b94612507868484886128a4565b805161254f57506125497fb8e138887d0aa13bab447e82de9d5c1777041ecd21ca36ba824ff1e6c07ddda4938660405194859460018060a01b0316978561248d565b0390a290565b612549907fe2babfbac5889a709b63bb7f598b324e08bc5a4fb9ec647fb3cbc9ec07eb8712948760405195869560018060a01b03169886612453565b60405162461bcd60e51b815260206004820152602360248201527f476f7665726e6f723a20766f7465206e6f742063757272656e746c792061637460448201526269766560e81b6064820152608490fd5b156125e357565b60405162461bcd60e51b815260206004820152601860248201527f476f7665726e6f723a206f6e6c79476f7665726e616e636500000000000000006044820152606490fd5b90815181101561211d570160200190565b8151603481106126f05760131981840101516001600160a01b0319166b1b91f1b211f2119351b859f160a31b016126f0579160009261267781611bc8565b915b818310612694575050506001600160a01b0391821691161490565b9091936126ba6126b56126a78785612628565b516001600160f81b03191690565b6126f8565b9190156126e55760041b6010600160a01b031660ff9190911617936126de906120e4565b9190612679565b505050505050600190565b505050600190565b60f81c9081602f108061276c575b1561271857600191602f190160ff1690565b8160401080612762575b15612734576001916036190160ff1690565b8160601080612758575b15612750576001916056190160ff1690565b600091508190565b506067821061273e565b5060478210612722565b50603a8210612706565b6000526009602052604060002060036020526001600160401b03604060002054169060405191632394e7a360e21b835280600484015260208360248160018060a01b037f0000000000000000000000000000000000000000000000000000000000000000165afa92831561137257600093612824575b506127f690612c76565b918281029281840414901517156118665761281d8160026001606494015491015490611d43565b9104111590565b6127f69193506128419060203d811161136b5761135d8183610478565b92906127ec565b1561284f57565b60405162461bcd60e51b815260206004820152602760248201527f476f7665726e6f72566f74696e6753696d706c653a20766f746520616c726561604482015266191e4818d85cdd60ca1b6064820152608490fd5b916129206129136128c260ff94956000526009602052604060002090565b94600386016128fc6128f76128f36128ec85859060018060a01b0316600052602052604060002090565b5460ff1690565b1590565b612848565b9060018060a01b0316600052602052604060002090565b805460ff19166001179055565b1680612937575090612933908254611d43565b9055565b6001810361294f575060016129339101918254611d43565b6002036129655760026129339101918254611d43565b60405162461bcd60e51b815260206004820152603560248201527f476f7665726e6f72566f74696e6753696d706c653a20696e76616c69642076616044820152746c756520666f7220656e756d20566f74655479706560581b6064820152608490fd5b6040513d6000823e3d90fd5b6040516324776b7d60e21b81526020816004817f00000000000000000000000000000000000000000000000000000000000000006001600160a01b03165afa8091600091612a2d575b50906105345750610534436136cf565b6020813d8211612a69575b81612a4560209383610478565b81010312612a6557519065ffffffffffff82168203610851575038612a1d565b5080fd5b3d9150612a38565b60405190612a7e826103ec565b601d82527f6d6f64653d626c6f636b6e756d6265722666726f6d3d64656661756c740000006020830152565b604051634bf5d7e960e01b8152600080826004817f00000000000000000000000000000000000000000000000000000000000000006001600160a01b03165afa90918282612b02575b50506105345750610534612a71565b909192503d8082843e612b158184610478565b820191602081840312612a65578051906001600160401b038211612b81570182601f82011215612a6557805191612b4b836104c7565b93612b596040519586610478565b83855260208484010111610851575090612b79916020808501910161071a565b903880612af3565b8280fd5b90816020910312610366575190565b604051630748d63560e31b81526001600160a01b0391821660048201526024810192909252602090829060449082907f0000000000000000000000000000000000000000000000000000000000000000165afa90811561137257600091612384575090565b600b5460009080612c0c575050600a5490565b8060001981011161186657600b7f0175b7a638427703f0dbe7bb9bbf987a2551717b34e79f33b5b1008d1fa01db89252015460201c90565b90604051604081018181106001600160401b0382111761040757604052602081935463ffffffff81168352811c910152565b600b9081548015612e085760001981018181116118665781111561211d57600092808452612cc57f0175b7a638427703f0dbe7bb9bbf987a2551717b34e79f33b5b1008d1fa01db88301612c44565b9263ffffffff9381858251161115612df25750612ce190613736565b92848360058111612da2575b5092939192918116905b848310612d4e57505050508015600014612d1957505b6001600160e01b031690565b612d499150612d2a612d4291611bb9565b600b60005260008051602061379c8339815191520190565b5460201c90565b612d0d565b909192938084169080851860011c82018092116118665785875283838360008051602061379c83398151915201541611600014612d905750935b929190612cf7565b949350612d9c90611d35565b92612d88565b9093612dad826134ac565b82039182116118665783875260008051602061379c83398151915282015483168684161015612de157508190935b90612ced565b9350612ded8291611d35565b612ddb565b602001516001600160e01b031695945050505050565b505050600a5490565b600b549068010000000000000000821015610407576001820180600b5582101561211d57600b600052805160209182015190911b63ffffffff191663ffffffff919091161760008051602061379c83398151915290910155565b90919015612e77575090565b815115612e875750805190602001fd5b60405162461bcd60e51b815260206004820152908190611b4690602483019061073d565b15612eb257565b60405162461bcd60e51b815260206004820152601b60248201527f436865636b706f696e743a2064656372656173696e67206b65797300000000006044820152606490fd5b600b549192918015612fd357612f99918185612f1f612f1a612d2a602096611bb9565b612c44565b92612f2e845163ffffffff1690565b612f4563ffffffff91828416928391161115612eab565b612f5f612f56865163ffffffff1690565b63ffffffff1690565b03612f9d5750612f74612d2a612f8b93611bb9565b9063ffffffff82549181199060201b169116179055565b01516001600160e01b031690565b9190565b9050612fce9150612fbb612faf610499565b63ffffffff9092168252565b6001600160e01b03871681850152612e11565b612f8b565b50612ff790612fe3612faf610499565b6001600160e01b0384166020820152612e11565b60009190565b60051115610bd157565b61301081612ffd565b806130185750565b61302181612ffd565b6001810361306e5760405162461bcd60e51b815260206004820152601860248201527f45434453413a20696e76616c6964207369676e617475726500000000000000006044820152606490fd5b61307781612ffd565b600281036130c45760405162461bcd60e51b815260206004820152601f60248201527f45434453413a20696e76616c6964207369676e6174757265206c656e677468006044820152606490fd5b806130d0600392612ffd565b146130d757565b60405162461bcd60e51b815260206004820152602260248201527f45434453413a20696e76616c6964207369676e6174757265202773272076616c604482015261756560f01b6064820152608490fd5b9291907f7fffffffffffffffffffffffffffffff5d576e7357a4501ddfe92f46681b20a083116131975791608094939160ff602094604051948552168484015260408301526060820152600093849182805260015afa156113725781516001600160a01b03811615611af4579190565b50505050600090600390565b6042906131ae6131c9565b906040519161190160f01b8352600283015260228201522090565b307f00000000000000000000000000000000000000000000000000000000000000006001600160a01b031614806132b4575b15613224577f000000000000000000000000000000000000000000000000000000000000000090565b60405160208101907f8b73c3c69bb8fe3d512ecc4cf759cc79239f7b179b0ffacaa9a75d522b39400f82527f000000000000000000000000000000000000000000000000000000000000000060408201527f000000000000000000000000000000000000000000000000000000000000000060608201524660808201523060a082015260a08152611a058161045d565b507f000000000000000000000000000000000000000000000000000000000000000046146131fb565b60ff811461331b5760ff811690601f821161330957604051916132ff836103ec565b8252602082015290565b604051632cd44ac360e21b8152600490fd5b5060405160008181549161332e836118d4565b808352926001908181169081156133b25750600114613355575b5061053492500382610478565b600080805291507f290decd9548b62a8d60345a988386fc84ba6bc95484008f6362f93160ef3e5635b8483106133975750610534935050810160200138613348565b8193509081602092548385890101520191019091849261337e565b90506020925061053494915060ff191682840152151560051b82010138613348565b60ff81146133f65760ff811690601f821161330957604051916132ff836103ec565b5060405160008160019182549261340c846118d4565b808452938181169081156133b2575060011461342f575061053492500382610478565b600081815291507fb10e2d527612073b26eecdfd717e6a320cf44b4afac2b0732d9fcbe2b7fa0cf65b8483106134715750610534935050810160200138613348565b81935090816020925483858901015201910190918492613458565b8115613496570490565b634e487b7160e01b600052601260045260246000fd5b80156135e6578061357f61357861356e61356461355a61355061354661353c60016105349a6000908b60801c806135da575b508060401c806135cd575b508060201c806135c0575b508060101c806135b3575b508060081c806135a6575b508060041c80613599575b508060021c8061358c575b50821c613585575b811c1b613535818b61348c565b0160011c90565b613535818a61348c565b613535818961348c565b613535818861348c565b613535818761348c565b613535818661348c565b613535818561348c565b809261348c565b906135ec565b8101613528565b6002915091019038613520565b6004915091019038613515565b600891509101903861350a565b60109150910190386134ff565b60209150910190386134f4565b60409150910190386134e9565b915050608090386134de565b50600090565b90808210156135f9575090565b905090565b6001600160e01b0390818111613612571690565b60405162461bcd60e51b815260206004820152602760248201527f53616665436173743a2076616c756520646f65736e27742066697420696e20326044820152663234206269747360c81b6064820152608490fd5b6001600160401b039081811161367b571690565b60405162461bcd60e51b815260206004820152602660248201527f53616665436173743a2076616c756520646f65736e27742066697420696e203660448201526534206269747360d01b6064820152608490fd5b65ffffffffffff908181116136e2571690565b60405162461bcd60e51b815260206004820152602660248201527f53616665436173743a2076616c756520646f65736e27742066697420696e203460448201526538206269747360d01b6064820152608490fd5b63ffffffff90818111613747571690565b60405162461bcd60e51b815260206004820152602660248201527f53616665436173743a2076616c756520646f65736e27742066697420696e203360448201526532206269747360d01b6064820152608490fdfe0175b7a638427703f0dbe7bb9bbf987a2551717b34e79f33b5b1008d1fa01db9a2646970667358221220d17ed32f87336463124c48fdf0f9fb9a589d3b51d6048d71604e5f8a225562cf64736f6c634300081200330553476bf02ef2726e8ce5ced78d63e26e602e4a2257b1f559418e24b4633997",
  "linkReferences": {},
  "deployedLinkReferences": {}
}