{
  "_format": "hh-sol-artifact-1",
  "contractName": "GovernanceToken",
  "sourceName": "contracts/GovernanceToken.sol",
  "abi": [
    {
      "inputs": [],
      "stateMutability": "nonpayable",
      "type": "constructor"
    },
    {
      "inputs": [],
      "name": "InvalidShortString",
      "type": "error"
    },
    {
      "inputs": [
        {
          "internalType": "string",
          "name": "str",
          "type": "string"
        }
      ],
      "name": "StringTooLong",
      "type": "error"
    },
    {
      "anonymous": false,
      "inputs": [
        {
          "indexed": true,
          "internalType": "address",
          "name": "owner",
          "type": "address"
        },
        {
          "indexed": true,
          "internalType": "address",
          "name": "spender",
          "type": "address"
        },
        {
          "indexed": false,
          "internalType": "uint256",
          "name": "value",
          "type": "uint256"
        }
      ],
      "name": "Approval",
      "type": "event"
    },
    {
      "anonymous": false,
      "inputs": [
        {
          "indexed": true,
          "internalType": "address",
          "name": "delegator",
          "type": "address"
        },
        {
          "indexed": true,
          "internalType": "address",
          "name": "fromDelegate",
          "type": "address"
        },
        {
          "indexed": true,
          "internalType": "address",
          "name": "toDelegate",
          "type": "address"
        }
      ],
      "name": "DelegateChanged",
      "type": "event"
    },
    {
      "anonymous": false,
      "inputs": [
        {
          "indexed": true,
          "internalType": "address",
          "name": "delegate",
          "type": "address"
        },
        {
          "indexed": false,
          "internalType": "uint256",
          "name": "previousBalance",
          "type": "uint256"
        },
        {
          "indexed": false,
          "internalType": "uint256",
          "name": "newBalance",
          "type": "uint256"
        }
      ],
      "name": "DelegateVotesChanged",
      "type": "event"
    },
    {
      "anonymous": false,
      "inputs": [],
      "name": "EIP712DomainChanged",
      "type": "event"
    },
    {
      "anonymous": false,
      "inputs": [
        {
          "indexed": true,
          "internalType": "address",
          "name": "previousOwner",
          "type": "address"
        },
        {
          "indexed": true,
          "internalType": "address",
          "name": "newOwner",
          "type": "address"
        }
      ],
      "name": "OwnershipTransferred",
      "type": "event"
    },
    {
      "anonymous": false,
      "inputs": [
        {
          "indexed": true,
          "internalType": "address",
          "name": "from",
          "type": "address"
        },
        {
          "indexed": true,
          "internalType": "address",
          "name": "to",
          "type": "address"
        },
        {
          "indexed": false,
          "internalType": "uint256",
          "name": "value",
          "type": "uint256"
        }
      ],
      "name": "Transfer",
      "type": "event"
    },
    {
      "inputs": [],
      "name": "CLOCK_MODE",
      "outputs": [
        {
          "internalType": "string",
          "name": "",
          "type": "string"
        }
      ],
      "stateMutability": "view",
      "type": "function"
    },
    {
      "inputs": [],
      "name": "DOMAIN_SEPARATOR",
      "outputs": [
        {
          "internalType": "bytes32",
          "name": "",
          "type": "bytes32"
        }
      ],
      "stateMutability": "view",
      "type": "function"
    },
    {
      "inputs": [
        {
          "internalType": "address",
          "name": "owner",
          "type": "address"
        },
        {
          "internalType": "address",
          "name": "spender",
          "type": "address"
        }
      ],
      "name": "allowance",
      "outputs": [
        {
          "internalType": "uint256",
          "name": "",
          "type": "uint256"
        }
      ],
      "stateMutability": "view",
      "type": "function"
    },
    {
      "inputs": [
        {
          "internalType": "address",
          "name": "spender",
          "type": "address"
        },
        {
          "internalType": "uint256",
          "name": "amount",
          "type": "uint256"
        }
      ],
      "name": "approve",
      "outputs": [
        {
          "internalType": "bool",
          "name": "",
          "type": "bool"
        }
      ],
      "stateMutability": "nonpayable",
      "type": "function"
    },
    {
      "inputs": [
        {
          "internalType": "address",
          "name": "account",
          "type": "address"
        }
      ],
      "name": "balanceOf",
      "outputs": [
        {
          "internalType": "uint256",
          "name": "",
          "type": "uint256"
        }
      ],
      "stateMutability": "view",
      "type": "function"
    },
    {
      "inputs": [
        {
          "internalType": "address",
          "name": "account",
          "type": "address"
        },
        {
          "internalType": "uint32",
          "name": "pos",
          "type": "uint32"
        }
      ],
      "name": "checkpoints",
      "outputs": [
        {
          "components": [
            {
              "internalType": "uint32",
              "name": "fromBlock",
              "type": "uint32"
            },
            {
              "internalType": "uint224",
              "name": "votes",
              "type": "uint224"
            }
          ],
          "internalType": "struct ERC20Votes.Checkpoint",
          "name": "",
          "type": "tuple"
        }
      ],
      "stateMutability": "view",
      "type": "function"
    },
    {
      "inputs": [],
      "name": "clock",
      "outputs": [
        {
          "internalType": "uint48",
          "name": "",
          "type": "uint48"
        }
      ],
      "stateMutability": "view",
      "type": "function"
    },
    {
      "inputs": [],
      "name": "decimals",
      "outputs": [
        {
          "internalType": "uint8",
          "name": "",
          "type": "uint8"
        }
      ],
      "stateMutability": "view",
      "type": "function"
    },
    {
      "inputs": [
        {
          "internalType": "address",
          "name": "spender",
          "type": "address"
        },
        {
          "internalType": "uint256",
          "name": "subtractedValue",
          "type": "uint256"
        }
      ],
      "name": "decreaseAllowance",
      "outputs": [
        {
          "internalType": "bool",
          "name": "",
          "type": "bool"
        }
      ],
      "stateMutability": "nonpayable",
      "type": "function"
    },
    {
      "inputs": [
        {
          "internalType": "address",
          "name": "delegatee",
          "type": "address"
        }
      ],
      "name": "delegate",
      "outputs": [],
      "stateMutability": "nonpayable",
      "type": "function"
    },
    {
      "inputs": [
        {
          "internalType": "address",
          "name": "delegatee",
          "type": "address"
        },
        {
          "internalType": "uint256",
          "name": "nonce",
          "type": "uint256"
        },
        {
          "internalType": "uint256",
          "name": "expiry",
          "type": "uint256"
        },
        {
          "internalType": "uint8",
          "name": "v",
          "type": "uint8"
        },
        {
          "internalType": "bytes32",
          "name": "r",
          "type": "bytes32"
        },
        {
          "internalType": "bytes32",
          "name": "s",
          "type": "bytes32"
        }
      ],
      "name": "delegateBySig",
      "outputs": [],
      "stateMutability": "nonpayable",
      "type": "function"
    },
    {
      "inputs": [
        {
          "internalType": "address",
          "name": "account",
          "type": "address"
        }
      ],
      "name": "delegates",
      "outputs": [
        {
          "internalType": "address",
          "name": "",
          "type": "address"
        }
      ],
      "stateMutability": "view",
      "type": "function"
    },
    {
      "inputs": [],
      "name": "eip712Domain",
      "outputs": [
        {
          "internalType": "bytes1",
          "name": "fields",
          "type": "bytes1"
        },
        {
          "internalType": "string",
          "name": "name",
          "type": "string"
        },
        {
          "internalType": "string",
          "name": "version",
          "type": "string"
        },
        {
          "internalType": "uint256",
          "name": "chainId",
          "type": "uint256"
        },
        {
          "internalType": "address",
          "name": "verifyingContract",
          "type": "address"
        },
        {
          "internalType": "bytes32",
          "name": "salt",
          "type": "bytes32"
        },
        {
          "internalType": "uint256[]",
          "name": "extensions",
          "type": "uint256[]"
        }
      ],
      "stateMutability": "view",
      "type": "function"
    },
    {
      "inputs": [
        {
          "internalType": "uint256",
          "name": "timepoint",
          "type": "uint256"
        }
      ],
      "name": "getPastTotalSupply",
      "outputs": [
        {
          "internalType": "uint256",
          "name": "",
          "type": "uint256"
        }
      ],
      "stateMutability": "view",
      "type": "function"
    },
    {
      "inputs": [
        {
          "internalType": "address",
          "name": "account",
          "type": "address"
        },
        {
          "internalType": "uint256",
          "name": "timepoint",
          "type": "uint256"
        }
      ],
      "name": "getPastVotes",
      "outputs": [
        {
          "internalType": "uint256",
          "name": "",
          "type": "uint256"
        }
      ],
      "stateMutability": "view",
      "type": "function"
    },
    {
      "inputs": [
        {
          "internalType": "address",
          "name": "account",
          "type": "address"
        }
      ],
      "name": "getVotes",
      "outputs": [
        {
          "internalType": "uint256",
          "name": "",
          "type": "uint256"
        }
      ],
      "stateMutability": "view",
      "type": "function"
    },
    {
      "inputs": [
        {
          "internalType": "address",
          "name": "spender",
          "type": "address"
        },
        {
          "internalType": "uint256",
          "name": "addedValue",
          "type": "uint256"
        }
      ],
      "name": "increaseAllowance",
      "outputs": [
        {
          "internalType": "bool",
          "name": "",
          "type": "bool"
        }
      ],
      "stateMutability": "nonpayable",
      "type": "function"
    },
    {
      "inputs": [],
      "name": "name",
      "outputs": [
        {
          "internalType": "string",
          "name": "",
          "type": "string"
        }
      ],
      "stateMutability": "view",
      "type": "function"
    },
    {
      "inputs": [
        {
          "internalType": "address",
          "name": "owner",
          "type": "address"
        }
      ],
      "name": "nonces",
      "outputs": [
        {
          "internalType": "uint256",
          "name": "",
          "type": "uint256"
        }
      ],
      "stateMutability": "view",
      "type": "function"
    },
    {
      "inputs": [
        {
          "internalType": "address",
          "name": "account",
          "type": "address"
        }
      ],
      "name": "numCheckpoints",
      "outputs": [
        {
          "internalType": "uint32",
          "name": "",
          "type": "uint32"
        }
      ],
      "stateMutability": "view",
      "type": "function"
    },
    {
      "inputs": [],
      "name": "owner",
      "outputs": [
        {
          "internalType": "address",
          "name": "",
          "type": "address"
        }
      ],
      "stateMutability": "view",
      "type": "function"
    },
    {
      "inputs": [
        {
          "internalType": "address",
          "name": "owner",
          "type": "address"
        },
        {
          "internalType": "address",
          "name": "spender",
          "type": "address"
        },
        {
          "internalType": "uint256",
          "name": "value",
          "type": "uint256"
        },
        {
          "internalType": "uint256",
          "name": "deadline",
          "type": "uint256"
        },
        {
          "internalType": "uint8",
          "name": "v",
          "type": "uint8"
        },
        {
          "internalType": "bytes32",
          "name": "r",
          "type": "bytes32"
        },
        {
          "internalType": "bytes32",
          "name": "s",
          "type": "bytes32"
        }
      ],
      "name": "permit",
      "outputs": [],
      "stateMutability": "nonpayable",
      "type": "function"
    },
    {
      "inputs": [],
      "name": "renounceOwnership",
      "outputs": [],
      "stateMutability": "nonpayable",
      "type": "function"
    },
    {
      "inputs": [],
      "name": "symbol",
      "outputs": [
        {
          "internalType": "string",
          "name": "",
          "type": "string"
        }
      ],
      "stateMutability": "view",
      "type": "function"
    },
    {
      "inputs": [],
      "name": "totalSupply",
      "outputs": [
        {
          "internalType": "uint256",
          "name": "",
          "type": "uint256"
        }
      ],
      "stateMutability": "view",
      "type": "function"
    },
    {
      "inputs": [
        {
          "internalType": "address",
          "name": "to",
          "type": "address"
        },
        {
          "internalType": "uint256",
          "name": "amount",
          "type": "uint256"
        }
      ],
      "name": "transfer",
      "outputs": [
        {
          "internalType": "bool",
          "name": "",
          "type": "bool"
        }
      ],
      "stateMutability": "nonpayable",
      "type": "function"
    },
    {
      "inputs": [
        {
          "internalType": "address",
          "name": "from",
          "type": "address"
        },
        {
          "internalType": "address",
          "name": "to",
          "type": "address"
        },
        {
          "internalType": "uint256",
          "name": "amount",
          "type": "uint256"
        }
      ],
      "name": "transferFrom",
      "outputs": [
        {
          "internalType": "bool",
          "name": "",
          "type": "bool"
        }
      ],
      "stateMutability": "nonpayable",
      "type": "function"
    },
    {
      "inputs": [
        {
          "internalType": "address",
          "name": "newOwner",
          "type": "address"
        }
      ],
      "name": "transferOwnership",
      "outputs": [],
      "stateMutability": "nonpayable",
      "type": "function"
    }
  ],
  "bytecode": "0x6101606040523462000204576200001562000276565b6200001f62000276565b906200002a6200024c565b916020926321a3a7ab60e11b848201526200004462000261565b603160f81b858201908152835190939192916001600160401b038211620001fe576200007d8262000077600354620002b3565b620002f0565b8690601f83116001146200016e57620000b79392916000918362000162575b50508160011b916000199060031b1c19161760035562000454565b620000c28362000c1c565b92610120938452620000d48262000d2f565b94610140958652815191012060e052519020916101009283524660a052620000fb62000ee0565b6080523060c0526200010d3362000547565b6200011833620005f6565b604051916122749384620010b6853960805184611cae015260a05184611d69015260c05184611c78015260e05184611cfd01525183611d230152518261088e015251816108b70152f35b0151905038806200009c565b6003600052601f19831691907fc2575a0e9e593c00f959f8c92f12db2869c3395a3b0502d05e2516446f71f85b9260005b8a828210620001e7575050916001939185620000b797969410620001cd575b505050811b0160035562000454565b015160001960f88460031b161c19169055388080620001be565b60018596829396860151815501950193016200019f565b62000209565b600080fd5b634e487b7160e01b600052604160045260246000fd5b604081019081106001600160401b03821117620001fe57604052565b604051906200024a826200021f565b565b604051906200025b826200021f565b60048252565b6040519062000270826200021f565b60018252565b6040519062000285826200021f565b600982526821b0b93137b723b7bb60b91b6020830152565b634e487b7160e01b600052601160045260246000fd5b90600182811c92168015620002e5575b6020831014620002cf57565b634e487b7160e01b600052602260045260246000fd5b91607f1691620002c3565b601f8111620002fd575050565b6000906003825260208220906020601f850160051c830194106200033e575b601f0160051c01915b8281106200033257505050565b81815560010162000325565b90925082906200031c565b601f811162000356575050565b6000906004825260208220906020601f850160051c8301941062000397575b601f0160051c01915b8281106200038b57505050565b8181556001016200037e565b909250829062000375565b601f8111620003af575050565b6000906005825260208220906020601f850160051c83019410620003f0575b601f0160051c01915b828110620003e457505050565b818155600101620003d7565b9092508290620003ce565b601f811162000408575050565b6000906006825260208220906020601f850160051c8301941062000449575b601f0160051c01915b8281106200043d57505050565b81815560010162000430565b909250829062000427565b80519091906001600160401b038111620001fe5762000480816200047a600454620002b3565b62000349565b602080601f8311600114620004bf5750819293600092620004b3575b50508160011b916000199060031b1c191617600455565b0151905038806200049c565b6004600052601f198316949091907f8a35acfbc15ff81a39ae7d344fd709f28e8600b4aa8c65c6b64bfe7fe36bd19b926000905b8782106200052e57505083600195961062000514575b505050811b01600455565b015160001960f88460031b161c1916905538808062000509565b80600185968294968601518155019501930190620004f3565b600c80546001600160a01b039283166001600160a01b0319821681179092559091167f8be0079c531659141344cd1fd0a4f28419497f9722a3daafe3b4186f6b6457e0600080a3565b156200059857565b60405162461bcd60e51b815260206004820152603060248201527f4552433230566f7465733a20746f74616c20737570706c79207269736b73206f60448201526f766572666c6f77696e6720766f74657360801b6064820152608490fd5b6001600160a01b038116908115620006c3576002549169d3c21bcecceda1000000808401809411620006bd57620006306200069794600255565b6001600160a01b038316600090815260208190526040902090815401905560007fddf252ad1be2c89b69c2b068fc378daa952ba7f163c4a11628f55a4df523b3ef604051806200068e819069d3c21bcecceda1000000602083019252565b0390a362000708565b600254620006af906001600160e01b03101562000590565b620006b96200090b565b5050565b6200029d565b60405162461bcd60e51b815260206004820152601f60248201527f45524332303a206d696e7420746f20746865207a65726f2061646472657373006044820152606490fd5b60096020527fec8156718a8372b1db44bb411437d0870f3e3790d4a08526d024ce1b0b668f6b546001600160a01b0391821660009081526040812054831692909116908183141580620007f8575b6200076057505050565b81620007b9575b505080620007725750565b6001600160a01b0381166000908152600a602052604090206000805160206200332a83398151915290620007a69062000bb2565b60408051928352602083019190915290a2565b620007df604082846000805160206200332a8339815191529452600a6020522062000a91565b60408051928352602083019190915290a2388062000767565b50600162000756565b604080519192919081016001600160401b03811182821017620001fe57604052602081935463ffffffff81168352811c910152565b600b549068010000000000000000821015620001fe576001820180600b55821015620008a457600b600052805160209182015190911b63ffffffff191663ffffffff91909116177f0175b7a638427703f0dbe7bb9bbf987a2551717b34e79f33b5b1008d1fa01db990910155565b634e487b7160e01b600052603260045260246000fd5b90815468010000000000000000811015620001fe5760018101808455811015620008a457600092835260209283902082519284015190931b63ffffffff191663ffffffff9290921691909117910155565b600b5490811590811562000a5257620009236200023b565b6000815260006020820152925b602084015162000950906001600160e01b03165b6001600160e01b031690565b936200095c8562001084565b9315908162000a2b575b5015620009c3576200024a90620009ac620009818562000f4c565b600b600052917f0175b7a638427703f0dbe7bb9bbf987a2551717b34e79f33b5b1008d1fa01db80190565b9063ffffffff82549181199060201b169116179055565b506200024a620009ec620009e6620009db4362000fb6565b65ffffffffffff1690565b6200101e565b62000a25620009fb8562000f4c565b62000a1562000a096200023b565b63ffffffff9094168452565b6001600160e01b03166020830152565b62000836565b5163ffffffff16905063ffffffff62000a48620009db4362000fb6565b9116143862000966565b600b60005262000a8a7f0175b7a638427703f0dbe7bb9bbf987a2551717b34e79f33b5b1008d1fa01db8840162000801565b62000801565b9262000930565b805491821591821562000b915762000aa86200023b565b6000815260006020820152935b602085015162000ace906001600160e01b031662000944565b9462000ada866200109c565b9415908162000b6a575b501562000b1157620009ac6200024a9262000aff8662000f4c565b92600019019060005260206000200190565b506200024a9062000b2a620009e6620009db4362000fb6565b9062000b6462000b3a8662000f4c565b62000b5462000b486200023b565b63ffffffff9095168552565b6001600160e01b03166020840152565b620008ba565b5163ffffffff16905063ffffffff62000b87620009db4362000fb6565b9116143862000ae4565b62000bab62000a8460001986018360005260206000200190565b9362000ab5565b805491821591821562000bfb5762000bc96200023b565b6000815260006020820152935b602085015162000bef906001600160e01b031662000944565b9462000ada8662001084565b62000c1562000a8460001986018360005260206000200190565b9362000bd6565b908151602080821060001462000c3d5750509062000c3a9062000e63565b90565b6001600160401b038211620001fe5762000c648262000c5e600554620002b3565b620003a2565b80601f831160011462000ca4575081929360009262000c98575b50508160011b916000199060031b1c19161760055560ff90565b01519050388062000c7e565b6005600052601f198316949091907f036b6384b5eca791c62761152d0c79bb0604c104a5fb6f4eb0703f3154bb3db0926000905b87821062000d1657505083600195961062000cfc575b505050811b0160055560ff90565b015160001960f88460031b161c1916905538808062000cee565b8060018596829496860151815501950193019062000cd8565b908151602080821060001462000d4d5750509062000c3a9062000e63565b6001600160401b038211620001fe5762000d748262000d6e600654620002b3565b620003fb565b80601f831160011462000db4575081929360009262000da8575b50508160011b916000199060031b1c19161760065560ff90565b01519050388062000d8e565b6006600052601f198316949091907ff652222313e28459528d920b65115c16c04f3efc82aaedc97be59f3f377c0d3f926000905b87821062000e2657505083600195961062000e0c575b505050811b0160065560ff90565b015160001960f88460031b161c1916905538808062000dfe565b8060018596829496860151815501950193019062000de8565b60208151910151906020811062000e54575090565b6000199060200360031b1b1690565b601f81511162000e7e5762000e788162000e3f565b90511790565b6040519063305a27a960e01b82528160208060048301528251908160248401526000935b82851062000ec6575050604492506000838284010152601f80199101168101030190fd5b848101820151868601604401529381019385935062000ea2565b60e051610100516040519060208201927f8b73c3c69bb8fe3d512ecc4cf759cc79239f7b179b0ffacaa9a75d522b39400f8452604083015260608201524660808201523060a082015260a0815260c0810181811060018060401b03821117620001fe5760405251902090565b6001600160e01b039081811162000f61571690565b60405162461bcd60e51b815260206004820152602760248201527f53616665436173743a2076616c756520646f65736e27742066697420696e20326044820152663234206269747360c81b6064820152608490fd5b65ffffffffffff9081811162000fca571690565b60405162461bcd60e51b815260206004820152602660248201527f53616665436173743a2076616c756520646f65736e27742066697420696e203460448201526538206269747360d01b6064820152608490fd5b63ffffffff9081811162001030571690565b60405162461bcd60e51b815260206004820152602660248201527f53616665436173743a2076616c756520646f65736e27742066697420696e203360448201526532206269747360d01b6064820152608490fd5b69d3c21bcecceda10000008101809111620006bd5790565b69d3c21bcecceda0ffffff198101908111620006bd579056fe6080604052600436101561001257600080fd5b60003560e01c806306fdde03146101d7578063095ea7b3146101d257806318160ddd146101cd57806323b872dd146101c8578063313ce567146101c35780633644e515146101be57806339509351146101b95780633a46b1a8146101b45780634bf5d7e9146101af578063587cde1e146101aa5780635c19a95c146101a55780636fcfff45146101a057806370a082311461019b578063715018a6146101965780637ecebe001461019157806384b0196e1461018c5780638da5cb5b146101875780638e539e8c1461018257806391ddadf41461017d57806395d89b41146101785780639ab24eb014610173578063a457c2d71461016e578063a9059cbb14610169578063c3cda52014610164578063d505accf1461015f578063dd62ed3e1461015a578063f1127ed8146101555763f2fde38b1461015057600080fd5b611066565b610fdf565b610f87565b610e41565b610d16565b610cd0565b610c22565b610bc0565b610b19565b610aed565b610994565b61096b565b610873565b610839565b6107db565b6107a1565b610759565b610735565b6106fa565b610648565b6104f7565b61049f565b61047c565b610460565b610395565b610377565b610346565b610230565b919082519283825260005b848110610208575050826000602080949584010152601f8019910116010190565b6020818301810151848301820152016101e7565b90602061022d9281815201906101dc565b90565b346103155760008060031936011261031257604051908060035461025381611187565b808552916001918083169081156102e8575060011461028d575b6102898561027d81870382611230565b6040519182918261021c565b0390f35b9250600383527fc2575a0e9e593c00f959f8c92f12db2869c3395a3b0502d05e2516446f71f85b5b8284106102d057505050810160200161027d8261028961026d565b805460208587018101919091529093019281016102b5565b8695506102899693506020925061027d94915060ff191682840152151560051b820101929361026d565b80fd5b600080fd5b600435906001600160a01b038216820361031557565b602435906001600160a01b038216820361031557565b346103155760403660031901126103155761036c61036261031a565b6024359033611437565b602060405160018152f35b34610315576000366003190112610315576020600254604051908152f35b34610315576060366003190112610315576103ae61031a565b6103b6610330565b6001600160a01b0382166000908152600160209081526040808320338452909152902060443591905492600184016103ff575b6103f39350611329565b60405160018152602090f35b82841061041b57610416836103f395033383611437565b6103e9565b60405162461bcd60e51b815260206004820152601d60248201527f45524332303a20696e73756666696369656e7420616c6c6f77616e63650000006044820152606490fd5b3461031557600036600319011261031557602060405160128152f35b34610315576000366003190112610315576020610497611c75565b604051908152f35b34610315576040366003190112610315576104b861031a565b3360009081526001602090815260408083206001600160a01b038516845290915290205460243581018091116104f25761036c9133611437565b611252565b346103155760403660031901126103155761051061031a565b6024359061052f65ffffffffffff61052743612158565b168310611610565b6001600160a01b03166000908152600a60205260408120805492909183600581116105f7575b50905b8382106105a65750508161057f575050602060005b6040516001600160e01b039091168152f35b61059a6105a191602093600019019060005260206000200190565b5460201c90565b61056d565b90926105b28185611f88565b908263ffffffff6105d76105cd858860005260206000200190565b5463ffffffff1690565b1611156105e75750925b90610558565b93506105f290611268565b6105e1565b8061060761060d92969396611f9d565b9061165c565b908263ffffffff6106286105cd858860005260206000200190565b1611156106385750925b38610555565b935061064390611268565b610632565b34610315576000366003190112610315574365ffffffffffff61066a43612158565b16036106b55761028960405161067f816111d7565b601d81527f6d6f64653d626c6f636b6e756d6265722666726f6d3d64656661756c7400000060208201526040519182918261021c565b60405162461bcd60e51b815260206004820152601d60248201527f4552433230566f7465733a2062726f6b656e20636c6f636b206d6f64650000006044820152606490fd5b346103155760203660031901126103155760206001600160a01b038061071e61031a565b166000526009825260406000205416604051908152f35b346103155760203660031901126103155761075761075161031a565b336116e7565b005b34610315576020366003190112610315576001600160a01b0361077a61031a565b16600052600a60205260206107936040600020546121bf565b63ffffffff60405191168152f35b34610315576020366003190112610315576001600160a01b036107c261031a565b1660005260006020526020604060002054604051908152f35b3461031557600080600319360112610312576107f561112f565b600c80546001600160a01b0319811690915581906001600160a01b03167f8be0079c531659141344cd1fd0a4f28419497f9722a3daafe3b4186f6b6457e08280a380f35b34610315576020366003190112610315576001600160a01b0361085a61031a565b1660005260076020526020604060002054604051908152f35b34610315576000806003193601126103125761091d906108b27f0000000000000000000000000000000000000000000000000000000000000000611db5565b6108db7f0000000000000000000000000000000000000000000000000000000000000000611eae565b91604051916108e9836111f8565b818352604051948594600f60f81b865261090f60209360e08589015260e08801906101dc565b9086820360408801526101dc565b904660608601523060808601528260a086015284820360c08601528080855193848152019401925b82811061095457505050500390f35b835185528695509381019392810192600101610945565b3461031557600036600319011261031557600c546040516001600160a01b039091168152602090f35b34610315576020366003190112610315576004356109c365ffffffffffff6109bb43612158565b168210611610565b600b549060008260058111610a86575b50905b828210610a235782806109f0575060405160008152602090f35b600b6000526020906105a1907f0175b7a638427703f0dbe7bb9bbf987a2551717b34e79f33b5b1008d1fa01db80161059a565b9091610a2f8184611f88565b600b600052908263ffffffff610a667f0175b7a638427703f0dbe7bb9bbf987a2551717b34e79f33b5b1008d1fa01db985016105cd565b161115610a765750915b906109d6565b9250610a8190611268565b610a70565b80610607610a9692959395611f9d565b600b600052908263ffffffff610acd7f0175b7a638427703f0dbe7bb9bbf987a2551717b34e79f33b5b1008d1fa01db985016105cd565b161115610add5750915b386109d3565b9250610ae890611268565b610ad7565b34610315576000366003190112610315576020610b0943612158565b65ffffffffffff60405191168152f35b3461031557600080600319360112610312576040519080600454610b3c81611187565b808552916001918083169081156102e85750600114610b65576102898561027d81870382611230565b9250600483527f8a35acfbc15ff81a39ae7d344fd709f28e8600b4aa8c65c6b64bfe7fe36bd19b5b828410610ba857505050810160200161027d8261028961026d565b80546020858701810191909152909301928101610b8d565b34610315576020366003190112610315576001600160a01b03610be161031a565b16600052600a602052604060002080548015600014610c0857505060405160008152602090f35b602091610c199160001901906115c0565b5054811c61056d565b3461031557604036600319011261031557610c3b61031a565b60243590336000526001602052610c688160406000209060018060a01b0316600052602052604060002090565b5491808310610c7d576103f392039033611437565b60405162461bcd60e51b815260206004820152602560248201527f45524332303a2064656372656173656420616c6c6f77616e63652062656c6f77604482015264207a65726f60d81b6064820152608490fd5b346103155760403660031901126103155761036c610cec61031a565b6024359033611329565b6064359060ff8216820361031557565b6084359060ff8216820361031557565b346103155760c036600319011261031557610d2f61031a565b60443590602435610d3e610cf6565b92804211610dfc57610dce610df7916107579560405190610db682610da86020820195898b8860609194939260808201957fe48329057bfd03d55e49b547132e39cffd9c1820ad7b9d4c5307691425d15adf835260018060a01b0316602083015260408201520152565b03601f198101845283611230565b610dc960a4359360843593519020611d8f565b611a8f565b6001600160a01b0381166000908152600760205260409020805460018101909155909214611669565b6116e7565b60405162461bcd60e51b815260206004820152601d60248201527f4552433230566f7465733a207369676e617475726520657870697265640000006044820152606490fd5b346103155760e036600319011261031557610e5a61031a565b610e62610330565b6044359060643592610e72610d06565b93804211610f4257610f2a610f3d91610da861075797610f17610eb08760018060a01b03166000526007602052604060002090815491600183019055565b604080517f6e71edae12b1b97f4d1f60370fef10105fa2faae0126114a169c64845d6126c9602082019081526001600160a01b03808c1693830193909352918b166060820152608081018c905260a081019290925260c082019590955292839060e0820190565b610dc960c4359360a43593519020611d8f565b6001600160a01b03838116911614611567565b611437565b60405162461bcd60e51b815260206004820152601d60248201527f45524332305065726d69743a206578706972656420646561646c696e650000006044820152606490fd5b34610315576040366003190112610315576020610fd6610fa561031a565b610fad610330565b6001600160a01b0391821660009081526001855260408082209290931681526020919091522090565b54604051908152f35b3461031557604036600319011261031557610ff861031a565b63ffffffff60243581811681036103155761104261104891604094600060208751611022816111d7565b82815201526001600160a01b03166000908152600a6020528590206115c0565b506115ee565b8251815190921682526020908101516001600160e01b031690820152f35b346103155760203660031901126103155761107f61031a565b61108761112f565b6001600160a01b039081169081156110db57600c54826bffffffffffffffffffffffff60a01b821617600c55167f8be0079c531659141344cd1fd0a4f28419497f9722a3daafe3b4186f6b6457e0600080a3005b60405162461bcd60e51b815260206004820152602660248201527f4f776e61626c653a206e6577206f776e657220697320746865207a65726f206160448201526564647265737360d01b6064820152608490fd5b600c546001600160a01b0316330361114357565b606460405162461bcd60e51b815260206004820152602060248201527f4f776e61626c653a2063616c6c6572206973206e6f7420746865206f776e65726044820152fd5b90600182811c921680156111b7575b60208310146111a157565b634e487b7160e01b600052602260045260246000fd5b91607f1691611196565b634e487b7160e01b600052604160045260246000fd5b6040810190811067ffffffffffffffff8211176111f357604052565b6111c1565b6020810190811067ffffffffffffffff8211176111f357604052565b60c0810190811067ffffffffffffffff8211176111f357604052565b90601f8019910116810190811067ffffffffffffffff8211176111f357604052565b634e487b7160e01b600052601160045260246000fd5b90600182018092116104f257565b1561127d57565b60405162461bcd60e51b815260206004820152602360248201527f45524332303a207472616e7366657220746f20746865207a65726f206164647260448201526265737360e81b6064820152608490fd5b156112d557565b60405162461bcd60e51b815260206004820152602660248201527f45524332303a207472616e7366657220616d6f756e7420657863656564732062604482015265616c616e636560d01b6064820152608490fd5b6001600160a01b0392919083811680156113e4576113e29483169061134f821515611276565b6001600160a01b0383166000908152602081905260409020859054611376828210156112ce565b036113938460018060a01b03166000526000602052604060002090565b556001600160a01b0384166000908152602081815260409182902080548801905590518681527fddf252ad1be2c89b69c2b068fc378daa952ba7f163c4a11628f55a4df523b3ef9190a36116b5565b565b60405162461bcd60e51b815260206004820152602560248201527f45524332303a207472616e736665722066726f6d20746865207a65726f206164604482015264647265737360d81b6064820152608490fd5b6001600160a01b0380821692919083156115165782169384156114c657806114b07f8c5be1e5ebec7d5bd14f71427d1e84f3dd0314c0f7b2291e5b200ac8c7c3b925946114996114c19560018060a01b03166000526001602052604060002090565b9060018060a01b0316600052602052604060002090565b556040519081529081906020820190565b0390a3565b60405162461bcd60e51b815260206004820152602260248201527f45524332303a20617070726f766520746f20746865207a65726f206164647265604482015261737360f01b6064820152608490fd5b60405162461bcd60e51b8152602060048201526024808201527f45524332303a20617070726f76652066726f6d20746865207a65726f206164646044820152637265737360e01b6064820152608490fd5b1561156e57565b60405162461bcd60e51b815260206004820152601e60248201527f45524332305065726d69743a20696e76616c6964207369676e617475726500006044820152606490fd5b604051906113e2826111d7565b80548210156115d85760005260206000200190600090565b634e487b7160e01b600052603260045260246000fd5b906040516115fb816111d7565b602081935463ffffffff81168352811c910152565b1561161757565b60405162461bcd60e51b815260206004820152601960248201527f4552433230566f7465733a20667574757265206c6f6f6b7570000000000000006044820152606490fd5b919082039182116104f257565b1561167057565b60405162461bcd60e51b815260206004820152601960248201527f4552433230566f7465733a20696e76616c6964206e6f6e6365000000000000006044820152606490fd5b6001600160a01b039081166000908152600960205260408082205493831682529020546113e29392908216911661175b565b6113e29160018060a01b038092166000928184526009602052806040852054168092856020527f3134e8a2e6d97e929a7e54011ea5485d7d196dd5f0ba4d4ef95803e8e3fc257f60408720549660096020526040812094871694856bffffffffffffffffffffffff60a01b82541617905580a45b6001600160a01b0380831693929116808414158061196e575b61177f575b50505050565b806117ed575b5082611792575b80611779565b6001600160a01b03166000908152600a602052604090207fdec2bacdd2f05b59de34da9b523dff8be42e5e38e818c82fdb0bae774387a724916117d4916119d6565b60408051928352602083019190915290a238808061178c565b80600052600a6020527fdec2bacdd2f05b59de34da9b523dff8be42e5e38e818c82fdb0bae774387a724604060002080548015918260001461194b576118316115b3565b6000815260006020820152915b602083015161185d906001600160e01b03165b6001600160e01b031690565b926118688985612224565b94159081611928575b50156118c6576118996118b092611887866120ef565b92600019019060005260206000200190565b9063ffffffff82549181199060201b169116179055565b604080519182526020820192909252a238611785565b50611923906118ea6118e56118da43612158565b65ffffffffffff1690565b6121bf565b9061191e6118f7866120ef565b61190e6119026115b3565b63ffffffff9095168552565b6001600160e01b03166020840152565b611977565b6118b0565b5163ffffffff16905063ffffffff6119426118da43612158565b91161438611871565b61196861196360001984018360005260206000200190565b6115ee565b9161183e565b50821515611774565b8054680100000000000000008110156111f357611999916001820181556115c0565b6119c057815160209283015190921b63ffffffff191663ffffffff92909216919091179055565b634e487b7160e01b600052600060045260246000fd5b909181549182159283600014611a72576119ee6115b3565b60008152600060208201525b6020810151611a1c90611a15906001600160e01b0316611851565b9687612231565b94159081611a4f575b5015611a3b576118996113e292611887866120ef565b506113e2906118ea6118e56118da43612158565b5163ffffffff16905063ffffffff611a696118da43612158565b91161438611a25565b611a8a61196360001983018460005260206000200190565b6119fa565b9161022d9391611a9e93611be6565b919091611ac6565b60051115611ab057565b634e487b7160e01b600052602160045260246000fd5b611acf81611aa6565b80611ad75750565b611ae081611aa6565b60018103611b2d5760405162461bcd60e51b815260206004820152601860248201527f45434453413a20696e76616c6964207369676e617475726500000000000000006044820152606490fd5b611b3681611aa6565b60028103611b835760405162461bcd60e51b815260206004820152601f60248201527f45434453413a20696e76616c6964207369676e6174757265206c656e677468006044820152606490fd5b80611b8f600392611aa6565b14611b9657565b60405162461bcd60e51b815260206004820152602260248201527f45434453413a20696e76616c6964207369676e6174757265202773272076616c604482015261756560f01b6064820152608490fd5b9291907f7fffffffffffffffffffffffffffffff5d576e7357a4501ddfe92f46681b20a08311611c695791608094939160ff602094604051948552168484015260408301526060820152600093849182805260015afa15611c5c5781516001600160a01b03811615611c56579190565b50600190565b50604051903d90823e3d90fd5b50505050600090600390565b307f00000000000000000000000000000000000000000000000000000000000000006001600160a01b03161480611d66575b15611cd0577f000000000000000000000000000000000000000000000000000000000000000090565b60405160208101907f8b73c3c69bb8fe3d512ecc4cf759cc79239f7b179b0ffacaa9a75d522b39400f82527f000000000000000000000000000000000000000000000000000000000000000060408201527f000000000000000000000000000000000000000000000000000000000000000060608201524660808201523060a082015260a08152611d6081611214565b51902090565b507f00000000000000000000000000000000000000000000000000000000000000004614611ca7565b604290611d9a611c75565b906040519161190160f01b8352600283015260228201522090565b60ff8114611df35760ff811690601f8211611de15760405191611dd7836111d7565b8252602082015290565b604051632cd44ac360e21b8152600490fd5b50604051600554816000611e0683611187565b80835292600190818116908115611e8c5750600114611e2d575b5061022d92500382611230565b6005600090815291507f036b6384b5eca791c62761152d0c79bb0604c104a5fb6f4eb0703f3154bb3db05b848310611e71575061022d935050810160200138611e20565b81935090816020925483858901015201910190918492611e58565b90506020925061022d94915060ff191682840152151560051b82010138611e20565b60ff8114611ed05760ff811690601f8211611de15760405191611dd7836111d7565b50604051600654816000611ee383611187565b80835292600190818116908115611e8c5750600114611f09575061022d92500382611230565b6006600090815291507ff652222313e28459528d920b65115c16c04f3efc82aaedc97be59f3f377c0d3f5b848310611f4d575061022d935050810160200138611e20565b81935090816020925483858901015201910190918492611f34565b8115611f72570490565b634e487b7160e01b600052601260045260246000fd5b90808216911860011c81018091116104f25790565b80156120d7578061207061206961205f61205561204b61204161203761202d600161022d9a6000908b60801c806120cb575b508060401c806120be575b508060201c806120b1575b508060101c806120a4575b508060081c80612097575b508060041c8061208a575b508060021c8061207d575b50821c612076575b811c1b612026818b611f68565b0160011c90565b612026818a611f68565b6120268189611f68565b6120268188611f68565b6120268187611f68565b6120268186611f68565b6120268185611f68565b8092611f68565b906120dd565b8101612019565b6002915091019038612011565b6004915091019038612006565b6008915091019038611ffb565b6010915091019038611ff0565b6020915091019038611fe5565b6040915091019038611fda565b91505060809038611fcf565b50600090565b90808210156120ea575090565b905090565b6001600160e01b0390818111612103571690565b60405162461bcd60e51b815260206004820152602760248201527f53616665436173743a2076616c756520646f65736e27742066697420696e20326044820152663234206269747360c81b6064820152608490fd5b65ffffffffffff9081811161216b571690565b60405162461bcd60e51b815260206004820152602660248201527f53616665436173743a2076616c756520646f65736e27742066697420696e203460448201526538206269747360d01b6064820152608490fd5b63ffffffff908181116121d0571690565b60405162461bcd60e51b815260206004820152602660248201527f53616665436173743a2076616c756520646f65736e27742066697420696e203360448201526532206269747360d01b6064820152608490fd5b9081039081116104f25790565b9081018091116104f2579056fea264697066735822122073bf503373ae1cd48677ea2bfe8a435bc1c10e7e8135000200b0e8644a778af064736f6c63430008120033dec2bacdd2f05b59de34da9b523dff8be42e5e38e818c82fdb0bae774387a724",
  "linkReferences": {},
  "deployedLinkReferences": {}
}