{
  "_format": "hh-sol-artifact-1",
  "contractName": "Marketplace",
  "sourceName": "contracts/Marketplace.sol",
  "abi": [
    {
      "inputs": [
        {
          "internalType": "address",
          "name": "_carbon",
          "type": "address"
        },
        {
          "internalType": "address",
          "name": "_cert",
          "type": "address"
        }
      ],
      "stateMutability": "nonpayable",
      "type": "constructor"
    },
    {
      "anonymous": false,
      "inputs": [
        {
          "indexed": false,
          "internalType": "uint256",
          "name": "listingId",
          "type": "uint256"
        },
        {
          "indexed": false,
          "internalType": "address",
          "name": "buyer",
          "type": "address"
        },
        {
          "indexed": false,
          "internalType": "uint256",
          "name": "amount",
          "type": "uint256"
        }
      ],
      "name": "Bought",
      "type": "event"
    },
    {
      "anonymous": false,
      "inputs": [
        {
          "indexed": false,
          "internalType": "uint256",
          "name": "listingId",
          "type": "uint256"
        },
        {
          "indexed": false,
          "internalType": "address",
          "name": "seller",
          "type": "address"
        },
        {
          "indexed": false,
          "internalType": "uint256",
          "name": "tokenId",
          "type": "uint256"
        },
        {
          "indexed": false,
          "internalType": "uint256",
          "name": "amount",
          "type": "uint256"
        },
        {
          "indexed": false,
          "internalType": "uint256",
          "name": "price",
          "type": "uint256"
        }
      ],
      "name": "Listed",
      "type": "event"
    },
    {
      "anonymous": false,
      "inputs": [
        {
          "indexed": true,
          "internalType": "address",
          "name": "account",
          "type": "address"
        },
        {
          "indexed": false,
          "internalType": "uint256",
          "name": "tokenId",
          "type": "uint256"
        },
        {
          "indexed": false,
          "internalType": "uint256",
          "name": "amount",
          "type": "uint256"
        },
        {
          "indexed": false,
          "internalType": "uint256",
          "name": "certId",
          "type": "uint256"
        }
      ],
      "name": "Retired",
      "type": "event"
    },
    {
      "inputs": [],
      "name": "admin",
      "outputs": [
        {
          "internalType": "address",
          "name": "",
          "type": "address"
        }
      ],
      "stateMutability": "view",
      "type": "function"
    },
    {
      "inputs": [
        {
          "internalType": "uint256",
          "name": "listingId",
          "type": "uint256"
        },
        {
          "internalType": "uint256",
          "name": "amount",
          "type": "uint256"
        }
      ],
      "name": "buy",
      "outputs": [],
      "stateMutability": "payable",
      "type": "function"
    },
    {
      "inputs": [],
      "name": "carbon",
      "outputs": [
        {
          "internalType": "contract CarbonCredit",
          "name": "",
          "type": "address"
        }
      ],
      "stateMutability": "view",
      "type": "function"
    },
    {
      "inputs": [],
      "name": "cert",
      "outputs": [
        {
          "internalType": "contract RetirementCertificate",
          "name": "",
          "type": "address"
        }
      ],
      "stateMutability": "view",
      "type": "function"
    },
    {
      "inputs": [],
      "name": "feeBps",
      "outputs": [
        {
          "internalType": "uint256",
          "name": "",
          "type": "uint256"
        }
      ],
      "stateMutability": "view",
      "type": "function"
    },
    {
      "inputs": [
        {
          "internalType": "address",
          "name": "",
          "type": "address"
        }
      ],
      "name": "feesAccrued",
      "outputs": [
        {
          "internalType": "uint256",
          "name": "",
          "type": "uint256"
        }
      ],
      "stateMutability": "view",
      "type": "function"
    },
    {
      "inputs": [
        {
          "internalType": "uint256",
          "name": "tokenId",
          "type": "uint256"
        },
        {
          "internalType": "uint256",
          "name": "amount",
          "type": "uint256"
        },
        {
          "internalType": "uint256",
          "name": "pricePerUnit",
          "type": "uint256"
        }
      ],
      "name": "list",
      "outputs": [],
      "stateMutability": "nonpayable",
      "type": "function"
    },
    {
      "inputs": [
        {
          "internalType": "uint256",
          "name": "",
          "type": "uint256"
        }
      ],
      "name": "listings",
      "outputs": [
        {
          "internalType": "address",
          "name": "seller",
          "type": "address"
        },
        {
          "internalType": "uint256",
          "name": "tokenId",
          "type": "uint256"
        },
        {
          "internalType": "uint256",
          "name": "amount",
          "type": "uint256"
        },
        {
          "internalType": "uint256",
          "name": "pricePerUnit",
          "type": "uint256"
        }
      ],
      "stateMutability": "view",
      "type": "function"
    },
    {
      "inputs": [],
      "name": "nextListingId",
      "outputs": [
        {
          "internalType": "uint256",
          "name": "",
          "type": "uint256"
        }
      ],
      "stateMutability": "view",
      "type": "function"
    },
    {
      "inputs": [
        {
          "internalType": "address",
          "name": "",
          "type": "address"
        },
        {
          "internalType": "address",
          "name": "",
          "type": "address"
        },
        {
          "internalType": "uint256[]",
          "name": "",
          "type": "uint256[]"
        },
        {
          "internalType": "uint256[]",
          "name": "",
          "type": "uint256[]"
        },
        {
          "internalType": "bytes",
          "name": "",
          "type": "bytes"
        }
      ],
      "name": "onERC1155BatchReceived",
      "outputs": [
        {
          "internalType": "bytes4",
          "name": "",
          "type": "bytes4"
        }
      ],
      "stateMutability": "nonpayable",
      "type": "function"
    },
    {
      "inputs": [
        {
          "internalType": "address",
          "name": "",
          "type": "address"
        },
        {
          "internalType": "address",
          "name": "",
          "type": "address"
        },
        {
          "internalType": "uint256",
          "name": "",
          "type": "uint256"
        },
        {
          "internalType": "uint256",
          "name": "",
          "type": "uint256"
        },
        {
          "internalType": "bytes",
          "name": "",
          "type": "bytes"
        }
      ],
      "name": "onERC1155Received",
      "outputs": [
        {
          "internalType": "bytes4",
          "name": "",
          "type": "bytes4"
        }
      ],
      "stateMutability": "nonpayable",
      "type": "function"
    },
    {
      "inputs": [
        {
          "internalType": "uint256",
          "name": "tokenId",
          "type": "uint256"
        },
        {
          "internalType": "uint256",
          "name": "amount",
          "type": "uint256"
        },
        {
          "internalType": "string",
          "name": "metadataURI",
          "type": "string"
        }
      ],
      "name": "retire",
      "outputs": [],
      "stateMutability": "nonpayable",
      "type": "function"
    },
    {
      "inputs": [
        {
          "internalType": "bytes4",
          "name": "interfaceId",
          "type": "bytes4"
        }
      ],
      "name": "supportsInterface",
      "outputs": [
        {
          "internalType": "bool",
          "name": "",
          "type": "bool"
        }
      ],
      "stateMutability": "view",
      "type": "function"
    },
    {
      "inputs": [],
      "name": "withdrawFees",
      "outputs": [],
      "stateMutability": "nonpayable",
      "type": "function"
    }
  ],
  "bytecode": "0x60803461009b57601f610bc238819003918201601f19168301916001600160401b038311848410176100a057808492604094855283398101031261009b57610052602061004b836100b6565b92016100b6565b6001600055606460045560018060a01b03908160018060a01b031993168360015416176001551681600254161760025533906003541617600355604051610af790816100cb8239f35b600080fd5b634e487b7160e01b600052604160045260246000fd5b51906001600160a01b038216820361009b5756fe608060408181526004918236101561001657600080fd5b600092833560e01c91826301ffc9a7146108fd5750816319aeb4901461076057816324a9d85314610742578163476343ee146106b55781639cca92381461067d578163aaccf1ec1461065e578163b28a91d014610635578163bc197c81146105ae578163c66a1cb114610585578163d6febde814610335578163de74e57b146102e3578163f23a6e611461028a578163f4788ec1146100ea575063f851a440146100bf57600080fd5b346100e657816003193601126100e65760035490516001600160a01b039091168152602090f35b5080fd5b9050346102825760603660031901126102825780359160243560443567ffffffffffffffff93848211610286573660238301121561028657818101359485116102865736602486840101116102865760015487906001600160a01b03908116803b156102825782809160648b8a519485938492637a94c56560e11b8452338b85015260248401528b60448401525af1801561027857610259575b509260249291606460209560025416938989519a8b9788968794630712249f60e01b865233908601528c8286015282604486015201848401378181018301849052601f01601f191681010301925af192831561024f578593610218575b50815193845260208401528201527f9481316d4273cc6f69941b2fec63c793c284f670512d221ed13deba075424b1b60603392a280f35b9092506020813d8211610247575b81610233602093836109ab565b81010312610243575191386101e1565b8480fd5b3d9150610226565b82513d87823e3d90fd5b916102678195929493610981565b6102745792909138610184565b8380fd5b87513d85823e3d90fd5b8280fd5b8680fd5b8284346102e05760a03660031901126102e0576102a5610950565b506102ae61096b565b506084359067ffffffffffffffff82116102e057506020926102d291369101610a34565b505163f23a6e6160e01b8152f35b80fd5b9050346102825760203660031901126102825760809282913581526006602052209060018060a01b03825416916001810154916003600283015492015492815194855260208501528301526060820152f35b905081600319360112610282578035906024359060028554146105425760028555828552600660205283852060028101918383541061050b5761037c600383015485610a8b565b8034106104d15761039c612710610394845484610a8b565b048092610ab4565b6003546001600160a01b039081168a526007602052888a208054919382019182106104be578a8080979695948194829455858854168282156104b5575bf1156102785760019081541692015490823b15610274578751637921219560e11b81523091810191825233602083015260408201929092526060810186905260a0608082018190526000908201529091839183919082908490829060c00103925af180156104ab57610491575b50928285836104797fd2728f908c7e0feb83c6278798370fcb86b62f236c9dbf1a3f541096c21590409660609654610ab4565b90558051928352336020840152820152a16001815580f35b61049e9094939294610981565b6102435790918438610446565b86513d84823e3d90fd5b506108fc6103d9565b634e487b7160e01b8b526011855260248bfd5b865162461bcd60e51b815260208184015260146024820152731a5b9cdd59999a58da595b9d081c185e5b595b9d60621b6044820152606490fd5b606490602087519162461bcd60e51b835282015260116024820152701b9bdd08195b9bdd59da08185b5bdd5b9d607a1b6044820152fd5b606490602085519162461bcd60e51b8352820152601f60248201527f5265656e7472616e637947756172643a207265656e7472616e742063616c6c006044820152fd5b5050346100e657816003193601126100e65760015490516001600160a01b039091168152602090f35b8284346102e05760a03660031901126102e0576105c9610950565b506105d261096b565b5067ffffffffffffffff906044358281116100e6576105f490369086016109cd565b506064358281116100e65761060c90369086016109cd565b506084359182116102e0575060209261062791369101610a34565b505163bc197c8160e01b8152f35b5050346100e657816003193601126100e65760025490516001600160a01b039091168152602090f35b5050346100e657816003193601126100e6576020906005549051908152f35b5050346100e65760203660031901126100e65760209181906001600160a01b036106a5610950565b1681526007845220549051908152f35b9050346102825782600319360112610282576003546001600160a01b039081168085526007602052838520549283156107155750848093819382938352600760205282878120556003541682f11561070b575080f35b51903d90823e3d90fd5b606490602086519162461bcd60e51b835282015260076024820152666e6f206665657360c81b6044820152fd5b90503461028257826003193601126102825760209250549051908152f35b905034610282576060366003190112610282576001546044359160243591813591906001600160a01b03908116803b156108f9578651637921219560e11b815233848201908152306020820152604081018690526060810187905260a0608082018190526000908201529091899183919082908490829060c00103925af180156108ef576108dc575b5060055460001981146108c9576001019081600555865192608084019084821067ffffffffffffffff8311176108b4575060a0969492889694926003927fd0e2632082726e989c9a9cac6d495b05080e0d6836ee21e07618b32d5719a4049a52338452602084018581528885019187835260608601938985528d526006602052898d209551166bffffffffffffffffffffffff8b1b8654161785555160018501555160028401555191015560055493805194855233602086015284015260608301526080820152a180f35b604190634e487b7160e01b6000525260246000fd5b634e487b7160e01b885260118352602488fd5b6108e890979197610981565b95386107e9565b87513d8a823e3d90fd5b8780fd5b849134610282576020366003190112610282573563ffffffff60e01b81168091036102825760209250630271189760e51b811490811561093f575b5015158152f35b6301ffc9a760e01b14905083610938565b600435906001600160a01b038216820361096657565b600080fd5b602435906001600160a01b038216820361096657565b67ffffffffffffffff811161099557604052565b634e487b7160e01b600052604160045260246000fd5b90601f8019910116810190811067ffffffffffffffff82111761099557604052565b9080601f830112156109665781359067ffffffffffffffff8211610995578160051b60405193602093610a02858401876109ab565b85528380860192820101928311610966578301905b828210610a25575050505090565b81358152908301908301610a17565b81601f820112156109665780359067ffffffffffffffff82116109955760405192610a69601f8401601f1916602001856109ab565b8284526020838301011161096657816000926020809301838601378301015290565b81810292918115918404141715610a9e57565b634e487b7160e01b600052601160045260246000fd5b91908203918211610a9e5756fea2646970667358221220039412736e16fbb149d52774c8fcead30a47286472d2ef1c4f63dd4d2e06040c64736f6c63430008120033",
  "linkReferences": {},
  "deployedLinkReferences": {}
}